{
  "contractName": "BloodChain",
  "abi": [
    {
      "constant": false,
      "inputs": [],
      "name": "kill",
      "outputs": [],
      "payable": true,
      "stateMutability": "payable",
      "type": "function"
    },
    {
      "constant": false,
      "inputs": [],
      "name": "renounceOwnership",
      "outputs": [],
      "payable": false,
      "stateMutability": "nonpayable",
      "type": "function"
    },
    {
      "constant": true,
      "inputs": [],
      "name": "owner",
      "outputs": [
        {
          "name": "",
          "type": "address"
        }
      ],
      "payable": false,
      "stateMutability": "view",
      "type": "function"
    },
    {
      "constant": true,
      "inputs": [],
      "name": "isOwner",
      "outputs": [
        {
          "name": "",
          "type": "bool"
        }
      ],
      "payable": false,
      "stateMutability": "view",
      "type": "function"
    },
    {
      "constant": false,
      "inputs": [
        {
          "name": "newOwner",
          "type": "address"
        }
      ],
      "name": "transferOwnership",
      "outputs": [],
      "payable": false,
      "stateMutability": "nonpayable",
      "type": "function"
    },
    {
      "anonymous": false,
      "inputs": [
        {
          "indexed": true,
          "name": "previousOwner",
          "type": "address"
        },
        {
          "indexed": true,
          "name": "newOwner",
          "type": "address"
        }
      ],
      "name": "OwnershipTransferred",
      "type": "event"
    },
    {
      "constant": true,
      "inputs": [],
      "name": "getInfo",
      "outputs": [
        {
          "name": "",
          "type": "string"
        }
      ],
      "payable": false,
      "stateMutability": "pure",
      "type": "function"
    },
    {
      "constant": false,
      "inputs": [],
      "name": "sendFund",
      "outputs": [],
      "payable": true,
      "stateMutability": "payable",
      "type": "function"
    },
    {
      "constant": false,
      "inputs": [
        {
          "name": "amount",
          "type": "uint256"
        }
      ],
      "name": "withdraw",
      "outputs": [],
      "payable": true,
      "stateMutability": "payable",
      "type": "function"
    },
    {
      "constant": true,
      "inputs": [
        {
          "name": "userId",
          "type": "string"
        }
      ],
      "name": "getUserInfo",
      "outputs": [
        {
          "name": "",
          "type": "string"
        },
        {
          "name": "",
          "type": "uint256"
        },
        {
          "name": "",
          "type": "uint256"
        }
      ],
      "payable": false,
      "stateMutability": "view",
      "type": "function"
    },
    {
      "constant": true,
      "inputs": [
        {
          "name": "userId",
          "type": "string"
        }
      ],
      "name": "getUserInfoAddress",
      "outputs": [
        {
          "name": "",
          "type": "address"
        }
      ],
      "payable": false,
      "stateMutability": "view",
      "type": "function"
    },
    {
      "constant": false,
      "inputs": [
        {
          "name": "userId",
          "type": "string"
        }
      ],
      "name": "createUserInfo",
      "outputs": [],
      "payable": false,
      "stateMutability": "nonpayable",
      "type": "function"
    },
    {
      "constant": true,
      "inputs": [
        {
          "name": "bloodPackId",
          "type": "string"
        }
      ],
      "name": "getBloodPack",
      "outputs": [
        {
          "name": "",
          "type": "string"
        },
        {
          "name": "",
          "type": "uint256"
        }
      ],
      "payable": false,
      "stateMutability": "view",
      "type": "function"
    },
    {
      "constant": true,
      "inputs": [
        {
          "name": "bloodPackId",
          "type": "string"
        }
      ],
      "name": "getBloodPackAddress",
      "outputs": [
        {
          "name": "",
          "type": "address"
        }
      ],
      "payable": false,
      "stateMutability": "view",
      "type": "function"
    },
    {
      "constant": false,
      "inputs": [
        {
          "name": "bloodPackId",
          "type": "string"
        }
      ],
      "name": "createBloodPack",
      "outputs": [],
      "payable": false,
      "stateMutability": "nonpayable",
      "type": "function"
    }
  ],
  "bytecode": "0x6080604081905260008054600160a060020a0319163317808255600160a060020a0316917f8be0079c531659141344cd1fd0a4f28419497f9722a3daafe3b4186f6b6457e0908290a3612d47806100576000396000f3fe608060405260043610620000c55763ffffffff60e060020a6000350416632e1a7d4d8114620000ca57806341c0e1b514620000ec5780635501067c14620000f65780635a9b0b8914620001cc578063715018a6146200025c5780637c9b7fdd14620002745780638da5cb5b14620003b75780638f32d59b14620003cf578063db3d107f14620003fb578063dd0cf15d14620004b5578063e58d689d14620004bf578063ec11f8a41462000579578063ec1bc7691462000633578063f2fde38b146200076f575b600080fd5b620000ea60048036036020811015620000e257600080fd5b5035620007a6565b005b620000ea6200088e565b3480156200010357600080fd5b50620001b0600480360360208110156200011c57600080fd5b8101906020810181356401000000008111156200013857600080fd5b8201836020820111156200014b57600080fd5b803590602001918460018302840111640100000000831117156200016e57600080fd5b91908080601f016020809104026020016040519081016040528093929190818152602001838380828437600092019190915250929550620008ec945050505050565b60408051600160a060020a039092168252519081900360200190f35b348015620001d957600080fd5b50620001e462000961565b6040805160208082528351818301528351919283929083019185019080838360005b838110156200022057818101518382015260200162000206565b50505050905090810190601f1680156200024e5780820380516001836020036101000a031916815260200191505b509250505060405180910390f35b3480156200026957600080fd5b50620000ea62000998565b3480156200028157600080fd5b506200032e600480360360208110156200029a57600080fd5b810190602081018135640100000000811115620002b657600080fd5b820183602082011115620002c957600080fd5b80359060200191846001830284011164010000000083111715620002ec57600080fd5b91908080601f01602080910402602001604051908101604052809392919081815260200183838082843760009201919091525092955062000a3f945050505050565b6040518080602001848152602001838152602001828103825285818151815260200191508051906020019080838360005b83811015620003795781810151838201526020016200035f565b50505050905090810190601f168015620003a75780820380516001836020036101000a031916815260200191505b5094505050505060405180910390f35b348015620003c457600080fd5b50620001b062000c93565b348015620003dc57600080fd5b50620003e762000ca2565b604080519115158252519081900360200190f35b3480156200040857600080fd5b50620000ea600480360360208110156200042157600080fd5b8101906020810181356401000000008111156200043d57600080fd5b8201836020820111156200045057600080fd5b803590602001918460018302840111640100000000831117156200047357600080fd5b91908080601f01602080910402602001604051908101604052809392919081815260200183838082843760009201919091525092955062000cb3945050505050565b620000ea62000e2d565b348015620004cc57600080fd5b50620001b060048036036020811015620004e557600080fd5b8101906020810181356401000000008111156200050157600080fd5b8201836020820111156200051457600080fd5b803590602001918460018302840111640100000000831117156200053757600080fd5b91908080601f01602080910402602001604051908101604052809392919081815260200183838082843760009201919091525092955062000e7f945050505050565b3480156200058657600080fd5b50620000ea600480360360208110156200059f57600080fd5b810190602081018135640100000000811115620005bb57600080fd5b820183602082011115620005ce57600080fd5b80359060200191846001830284011164010000000083111715620005f157600080fd5b91908080601f01602080910402602001604051908101604052809392919081815260200183838082843760009201919091525092955062000eb5945050505050565b3480156200064057600080fd5b50620006ed600480360360208110156200065957600080fd5b8101906020810181356401000000008111156200067557600080fd5b8201836020820111156200068857600080fd5b80359060200191846001830284011164010000000083111715620006ab57600080fd5b91908080601f01602080910402602001604051908101604052809392919081815260200183838082843760009201919091525092955062000fd1945050505050565b6040518080602001838152602001828103825284818151815260200191508051906020019080838360005b838110156200073257818101518382015260200162000718565b50505050905090810190601f168015620007605780820380516001836020036101000a031916815260200191505b50935050505060405180910390f35b3480156200077c57600080fd5b50620000ea600480360360208110156200079557600080fd5b5035600160a060020a031662001198565b620007b062000ca2565b1515620007f6576040805160e560020a62461bcd028152602060048201819052602482015260008051602062002cfc833981519152604482015290519081900360640190fd5b303181111562000850576040805160e560020a62461bcd02815260206004820152600e60248201527f4e6f7420656e6f75676820455448000000000000000000000000000000000000604482015290519081900360640190fd5b60008054604051600160a060020a039091169183156108fc02918491818181858888f193505050501580156200088a573d6000803e3d6000fd5b5050565b6200089862000ca2565b1515620008de576040805160e560020a62461bcd028152602060048201819052602482015260008051602062002cfc833981519152604482015290519081900360640190fd5b600054600160a060020a0316ff5b6000806002836040518082805190602001908083835b60208310620009235780518252601f19909201916020918201910162000902565b51815160209384036101000a6000190180199092169116179052920194855250604051938490030190922054600160a060020a031695945050505050565b60408051808201909152601481527f426c6f6f6420436861696e20436f6e7472616374000000000000000000000000602082015290565b620009a262000ca2565b1515620009e8576040805160e560020a62461bcd028152602060048201819052602482015260008051602062002cfc833981519152604482015290519081900360640190fd5b60008054604051600160a060020a03909116907f8be0079c531659141344cd1fd0a4f28419497f9722a3daafe3b4186f6b6457e0908390a36000805473ffffffffffffffffffffffffffffffffffffffff19169055565b606060008060006001856040518082805190602001908083835b6020831062000a7a5780518252601f19909201916020918201910162000a59565b51815160209384036101000a600019018019909216911617905292019485525060408051948590039091018420547faf640d0f0000000000000000000000000000000000000000000000000000000085529051600160a060020a039091169450849363af640d0f93506004808201935060009291829003018186803b15801562000b0357600080fd5b505afa15801562000b18573d6000803e3d6000fd5b505050506040513d6000823e601f3d908101601f19168201604052602081101562000b4257600080fd5b81019080805164010000000081111562000b5b57600080fd5b8201602081018481111562000b6f57600080fd5b815164010000000081118282018710171562000b8a57600080fd5b505092919050505081600160a060020a031663cf09e0d06040518163ffffffff1660e060020a02815260040160206040518083038186803b15801562000bcf57600080fd5b505afa15801562000be4573d6000803e3d6000fd5b505050506040513d602081101562000bfb57600080fd5b5051604080517f2ba9fcd50000000000000000000000000000000000000000000000000000000081529051600160a060020a03851691632ba9fcd5916004808301926020929190829003018186803b15801562000c5757600080fd5b505afa15801562000c6c573d6000803e3d6000fd5b505050506040513d602081101562000c8357600080fd5b5051919790965090945092505050565b600054600160a060020a031690565b600054600160a060020a0316331490565b62000cbd62000ca2565b151562000d03576040805160e560020a62461bcd028152602060048201819052602482015260008051602062002cfc833981519152604482015290519081900360640190fd5b60008162000d10620012e5565b60208082528251818301528251829160408301919085019080838360005b8381101562000d4857818101518382015260200162000d2e565b50505050905090810190601f16801562000d765780820380516001836020036101000a031916815260200191505b5092505050604051809103906000f08015801562000d98573d6000803e3d6000fd5b509050806002836040518082805190602001908083835b6020831062000dd05780518252601f19909201916020918201910162000daf565b51815160209384036101000a60001901801990921691161790529201948552506040519384900301909220805473ffffffffffffffffffffffffffffffffffffffff1916600160a060020a03949094169390931790925550505050565b62000e3762000ca2565b151562000e7d576040805160e560020a62461bcd028152602060048201819052602482015260008051602062002cfc833981519152604482015290519081900360640190fd5b565b60008060018360405180828051906020019080838360208310620009235780518252601f19909201916020918201910162000902565b62000ebf62000ca2565b151562000f05576040805160e560020a62461bcd028152602060048201819052602482015260008051602062002cfc833981519152604482015290519081900360640190fd5b60008162000f12620012f6565b60208082528251818301528251829160408301919085019080838360005b8381101562000f4a57818101518382015260200162000f30565b50505050905090810190601f16801562000f785780820380516001836020036101000a031916815260200191505b5092505050604051809103906000f08015801562000f9a573d6000803e3d6000fd5b509050806001836040518082805190602001908083836020831062000dd05780518252601f19909201916020918201910162000daf565b60606000806002846040518082805190602001908083835b602083106200100a5780518252601f19909201916020918201910162000fe9565b51815160209384036101000a600019018019909216911617905292019485525060408051948590039091018420547faf640d0f0000000000000000000000000000000000000000000000000000000085529051600160a060020a039091169450849363af640d0f93506004808201935060009291829003018186803b1580156200109357600080fd5b505afa158015620010a8573d6000803e3d6000fd5b505050506040513d6000823e601f3d908101601f191682016040526020811015620010d257600080fd5b810190808051640100000000811115620010eb57600080fd5b82016020810184811115620010ff57600080fd5b81516401000000008111828201871017156200111a57600080fd5b505092919050505081600160a060020a031663cf09e0d06040518163ffffffff1660e060020a02815260040160206040518083038186803b1580156200115f57600080fd5b505afa15801562001174573d6000803e3d6000fd5b505050506040513d60208110156200118b57600080fd5b5051909350915050915091565b620011a262000ca2565b1515620011e8576040805160e560020a62461bcd028152602060048201819052602482015260008051602062002cfc833981519152604482015290519081900360640190fd5b620011f381620011f6565b50565b600160a060020a03811615156200127d576040805160e560020a62461bcd02815260206004820152602660248201527f4f776e61626c653a206e6577206f776e657220697320746865207a65726f206160448201527f6464726573730000000000000000000000000000000000000000000000000000606482015290519081900360840190fd5b60008054604051600160a060020a03808516939216917f8be0079c531659141344cd1fd0a4f28419497f9722a3daafe3b4186f6b6457e091a36000805473ffffffffffffffffffffffffffffffffffffffff1916600160a060020a0392909216919091179055565b604051610f82806200130883390190565b604051610a72806200228a8339019056fe60806040523480156200001157600080fd5b5060405162000f8238038062000f82833981018060405260208110156200003757600080fd5b8101908080516401000000008111156200005057600080fd5b820160208101848111156200006457600080fd5b81516401000000008111828201871017156200007f57600080fd5b505060008054600160a060020a031916321790558051909350620000ad925060019150602084019062000194565b50620000ca426103e864010000000062000b82620000d482021704565b6002555062000239565b6000821515620000e7575060006200018e565b828202828482811515620000f757fe5b04146200018b57604080517f08c379a000000000000000000000000000000000000000000000000000000000815260206004820152602160248201527f536166654d6174683a206d756c7469706c69636174696f6e206f766572666c6f60448201527f7700000000000000000000000000000000000000000000000000000000000000606482015290519081900360840190fd5b90505b92915050565b828054600181600116156101000203166002900490600052602060002090601f016020900481019282601f10620001d757805160ff191683800117855562000207565b8280016001018555821562000207579182015b8281111562000207578251825591602001919060010190620001ea565b506200021592915062000219565b5090565b6200023691905b8082111562000215576000815560010162000220565b90565b610d3980620002496000396000f3fe6080604052600436106100775763ffffffff7c01000000000000000000000000000000000000000000000000000000006000350416632c544480811461007c5780637c7598b1146100a35780638f32d59b146102f7578063af640d0f14610320578063c8691b2a146103aa578063cf09e0d01461059a575b600080fd5b34801561008857600080fd5b506100916105af565b60408051918252519081900360200190f35b3480156100af57600080fd5b506102f5600480360360a08110156100c657600080fd5b60ff82351691908101906040810160208201356401000000008111156100eb57600080fd5b8201836020820111156100fd57600080fd5b8035906020019184600183028401116401000000008311171561011f57600080fd5b91908080601f016020809104026020016040519081016040528093929190818152602001838380828437600092019190915250929594936020810193503591505064010000000081111561017257600080fd5b82018360208201111561018457600080fd5b803590602001918460018302840111640100000000831117156101a657600080fd5b91908080601f01602080910402602001604051908101604052809392919081815260200183838082843760009201919091525092959493602081019350359150506401000000008111156101f957600080fd5b82018360208201111561020b57600080fd5b8035906020019184600183028401116401000000008311171561022d57600080fd5b91908080601f016020809104026020016040519081016040528093929190818152602001838380828437600092019190915250929594936020810193503591505064010000000081111561028057600080fd5b82018360208201111561029257600080fd5b803590602001918460018302840111640100000000831117156102b457600080fd5b91908080601f0160208091040260200160405190810160405280939291908181526020018383808284376000920191909152509295506105b6945050505050565b005b34801561030357600080fd5b5061030c61075f565b604080519115158252519081900360200190f35b34801561032c57600080fd5b5061033561077d565b6040805160208082528351818301528351919283929083019185019080838360005b8381101561036f578181015183820152602001610357565b50505050905090810190601f16801561039c5780820380516001836020036101000a031916815260200191505b509250505060405180910390f35b3480156103b657600080fd5b506103d4600480360360208110156103cd57600080fd5b503561080a565b604051808760028111156103e457fe5b60ff1681526020018060200180602001806020018060200186815260200185810385528a818151815260200191508051906020019080838360005b8381101561043757818101518382015260200161041f565b50505050905090810190601f1680156104645780820380516001836020036101000a031916815260200191505b5085810384528951815289516020918201918b019080838360005b8381101561049757818101518382015260200161047f565b50505050905090810190601f1680156104c45780820380516001836020036101000a031916815260200191505b5085810383528851815288516020918201918a019080838360005b838110156104f75781810151838201526020016104df565b50505050905090810190601f1680156105245780820380516001836020036101000a031916815260200191505b50858103825287518152875160209182019189019080838360005b8381101561055757818101518382015260200161053f565b50505050905090810190601f1680156105845780820380516001836020036101000a031916815260200191505b509a505050505050505050505060405180910390f35b3480156105a657600080fd5b50610091610b7c565b6003545b90565b6105be61075f565b151561062b57604080517f08c379a000000000000000000000000000000000000000000000000000000000815260206004820152601760248201527f43616c6c6572206973206e6f7420746865206f776e6572000000000000000000604482015290519081900360640190fd5b610633610c3e565b60c06040519081016040528087600281111561064b57fe5b815260200186815260200185815260200184815260200183815260200161067d6103e842610b8290919063ffffffff16565b9052600380546001818101808455600093909352835160069092027fc2575a0e9e593c00f959f8c92f12db2869c3395a3b0502d05e2516446f71f85b018054949550929385939291839160ff1916908360028111156106d857fe5b021790555060208281015180516106f59260018501920190610c75565b5060408201518051610711916002840191602090910190610c75565b506060820151805161072d916003840191602090910190610c75565b5060808201518051610749916004840191602090910190610c75565b5060a08201518160050155505050505050505050565b60005473ffffffffffffffffffffffffffffffffffffffff16331490565b60018054604080516020600284861615610100026000190190941693909304601f810184900484028201840190925281815292918301828280156108025780601f106107d757610100808354040283529160200191610802565b820191906000526020600020905b8154815290600101906020018083116107e557829003601f168201915b505050505081565b60006060806060806000808710158015610825575060035487105b151561089257604080517f08c379a000000000000000000000000000000000000000000000000000000000815260206004820152601360248201527f496e646578206f7574206f6620626f756e647300000000000000000000000000604482015290519081900360640190fd5b61089a610c3e565b60038054899081106108a857fe5b600091825260209091206040805160c081019091526006909202018054829060ff1660028111156108d557fe5b60028111156108e057fe5b8152602001600182018054600181600116156101000203166002900480601f01602080910402602001604051908101604052809291908181526020018280546001816001161561010002031660029004801561097d5780601f106109525761010080835404028352916020019161097d565b820191906000526020600020905b81548152906001019060200180831161096057829003601f168201915b5050509183525050600282810180546040805160206001841615610100026000190190931694909404601f81018390048302850183019091528084529381019390830182828015610a0f5780601f106109e457610100808354040283529160200191610a0f565b820191906000526020600020905b8154815290600101906020018083116109f257829003601f168201915b505050918352505060038201805460408051602060026001851615610100026000190190941693909304601f8101849004840282018401909252818152938201939291830182828015610aa35780601f10610a7857610100808354040283529160200191610aa3565b820191906000526020600020905b815481529060010190602001808311610a8657829003601f168201915b505050918352505060048201805460408051602060026001851615610100026000190190941693909304601f8101849004840282018401909252818152938201939291830182828015610b375780601f10610b0c57610100808354040283529160200191610b37565b820191906000526020600020905b815481529060010190602001808311610b1a57829003601f168201915b50505091835250506005919091015460209182015281519082015160408301516060840151608085015160a090950151939d929c50909a509850919650945092505050565b60025481565b6000821515610b9357506000610c38565b828202828482811515610ba257fe5b0414610c3557604080517f08c379a000000000000000000000000000000000000000000000000000000000815260206004820152602160248201527f536166654d6174683a206d756c7469706c69636174696f6e206f766572666c6f60448201527f7700000000000000000000000000000000000000000000000000000000000000606482015290519081900360840190fd5b90505b92915050565b6040805160c08101909152806000815260200160608152602001606081526020016060815260200160608152602001600081525090565b828054600181600116156101000203166002900490600052602060002090601f016020900481019282601f10610cb657805160ff1916838001178555610ce3565b82800160010185558215610ce3579182015b82811115610ce3578251825591602001919060010190610cc8565b50610cef929150610cf3565b5090565b6105b391905b80821115610cef5760008155600101610cf956fea165627a7a72305820b1b1a5baa25fbd1f5da779ec83393a9a7c43dab993400622fd46196524c414120029608060405234801561001057600080fd5b50604051610a72380380610a728339810180604052602081101561003357600080fd5b81019080805164010000000081111561004b57600080fd5b8201602081018481111561005e57600080fd5b815164010000000081118282018710171561007857600080fd5b505060008054600160a060020a0319163217905580519093506100a49250600191506020840190610188565b506100be426103e86401000000006106be6100cc82021704565b600255506000600355610223565b60008215156100dd57506000610182565b8282028284828115156100ec57fe5b041461017f57604080517f08c379a000000000000000000000000000000000000000000000000000000000815260206004820152602160248201527f536166654d6174683a206d756c7469706c69636174696f6e206f766572666c6f60448201527f7700000000000000000000000000000000000000000000000000000000000000606482015290519081900360840190fd5b90505b92915050565b828054600181600116156101000203166002900490600052602060002090601f016020900481019282601f106101c957805160ff19168380011785556101f6565b828001600101855582156101f6579182015b828111156101f65782518255916020019190600101906101db565b50610202929150610206565b5090565b61022091905b80821115610202576000815560010161020c565b90565b610840806102326000396000f3fe6080604052600436106100825763ffffffff7c01000000000000000000000000000000000000000000000000000000006000350416632ba9fcd581146100875780632c544480146100ae5780638f03783f146100c35780638f32d59b1461017f578063af640d0f146101a8578063c8691b2a14610232578063cf09e0d0146102e2575b600080fd5b34801561009357600080fd5b5061009c6102f7565b60408051918252519081900360200190f35b3480156100ba57600080fd5b5061009c6102fd565b3480156100cf57600080fd5b5061017d600480360360408110156100e657600080fd5b8135919081019060408101602082013564010000000081111561010857600080fd5b82018360208201111561011a57600080fd5b8035906020019184600183028401116401000000008311171561013c57600080fd5b91908080601f016020809104026020016040519081016040528093929190818152602001838380828437600092019190915250929550610304945050505050565b005b34801561018b57600080fd5b50610194610439565b604080519115158252519081900360200190f35b3480156101b457600080fd5b506101bd610457565b6040805160208082528351818301528351919283929083019185019080838360005b838110156101f75781810151838201526020016101df565b50505050905090810190601f1680156102245780820380516001836020036101000a031916815260200191505b509250505060405180910390f35b34801561023e57600080fd5b5061025c6004803603602081101561025557600080fd5b50356104e4565b6040518084815260200180602001838152602001828103825284818151815260200191508051906020019080838360005b838110156102a557818101518382015260200161028d565b50505050905090810190601f1680156102d25780820380516001836020036101000a031916815260200191505b5094505050505060405180910390f35b3480156102ee57600080fd5b5061009c610652565b60035481565b6004545b90565b61030c610439565b1515610362576040805160e560020a62461bcd02815260206004820152601760248201527f43616c6c6572206973206e6f7420746865206f776e6572000000000000000000604482015290519081900360640190fd5b600354610375908363ffffffff61065816565b60035561038061075a565b60408051606081018252848152602081018490529081016103a9426103e863ffffffff6106be16565b90526004805460018101808355600092909252825160039091027f8a35acfbc15ff81a39ae7d344fd709f28e8600b4aa8c65c6b64bfe7fe36bd19b8101918255602080850151805195965093948694610426937f8a35acfbc15ff81a39ae7d344fd709f28e8600b4aa8c65c6b64bfe7fe36bd19c0192019061077c565b5060408201518160020155505050505050565b60005473ffffffffffffffffffffffffffffffffffffffff16331490565b60018054604080516020600284861615610100026000190190941693909304601f810184900484028201840190925281815292918301828280156104dc5780601f106104b1576101008083540402835291602001916104dc565b820191906000526020600020905b8154815290600101906020018083116104bf57829003601f168201915b505050505081565b6000606060008084101580156104fb575060045484105b1515610551576040805160e560020a62461bcd02815260206004820152601360248201527f496e646578206f7574206f6620626f756e647300000000000000000000000000604482015290519081900360640190fd5b61055961075a565b600480548690811061056757fe5b90600052602060002090600302016060604051908101604052908160008201548152602001600182018054600181600116156101000203166002900480601f0160208091040260200160405190810160405280929190818152602001828054600181600116156101000203166002900480156106245780601f106105f957610100808354040283529160200191610624565b820191906000526020600020905b81548152906001019060200180831161060757829003601f168201915b5050509183525050600291909101546020918201528151908201516040909201519097919650945092505050565b60025481565b6000828201838110156106b5576040805160e560020a62461bcd02815260206004820152601b60248201527f536166654d6174683a206164646974696f6e206f766572666c6f770000000000604482015290519081900360640190fd5b90505b92915050565b60008215156106cf575060006106b8565b8282028284828115156106de57fe5b04146106b5576040805160e560020a62461bcd02815260206004820152602160248201527f536166654d6174683a206d756c7469706c69636174696f6e206f766572666c6f60448201527f7700000000000000000000000000000000000000000000000000000000000000606482015290519081900360840190fd5b6060604051908101604052806000815260200160608152602001600081525090565b828054600181600116156101000203166002900490600052602060002090601f016020900481019282601f106107bd57805160ff19168380011785556107ea565b828001600101855582156107ea579182015b828111156107ea5782518255916020019190600101906107cf565b506107f69291506107fa565b5090565b61030191905b808211156107f6576000815560010161080056fea165627a7a72305820b0f7cd91fdf2d596c1ce47bdf0968ff90672b488429bc44200816c13359e5be000294f776e61626c653a2063616c6c6572206973206e6f7420746865206f776e6572a165627a7a72305820a7f73d2e95c116a8152a818faf33a731a0381de0d6b8ed1bb854b77ad40ce1910029",
  "source": "pragma solidity ^0.5.0;\r\n\r\nimport \"./openzeppelin/lifecycle/Killable.sol\";\r\nimport \"./openzeppelin/math/SafeMath.sol\";\r\nimport \"./UserInfo.sol\";\r\nimport \"./BloodPack.sol\";\r\n\r\ncontract BloodChain is Killable {\r\n    using SafeMath for uint256;\r\n\r\n    string constant CONTRACT_INFO = \"Blood Chain Contract\";\r\n\r\n    mapping(string => UserInfo) private userInfos;\r\n    mapping(string => BloodPack) private bloodPacks;\r\n\r\n    function getInfo() public pure returns (string memory) {\r\n        return CONTRACT_INFO;\r\n    }\r\n\r\n    function sendFund() public payable onlyOwner { }\r\n\r\n    function withdraw(uint amount) public payable onlyOwner {\r\n        require (amount <= address(this).balance, \"Not enough ETH\");\r\n        _owner.transfer(amount);\r\n    }\r\n\r\n    function getUserInfo(string memory userId) public view returns (string memory, uint, uint) {\r\n        UserInfo userInfo = userInfos[userId];\r\n        return (userInfo.id(), userInfo.createdAt(), userInfo.point());\r\n    }\r\n\r\n    function getUserInfoAddress(string memory userId) public view returns (address) {\r\n        UserInfo userInfo = userInfos[userId];\r\n        return address(userInfo);\r\n    }\r\n\r\n    function createUserInfo(string memory userId) public onlyOwner {\r\n        UserInfo userInfo = new UserInfo(userId);\r\n        userInfos[userId] = userInfo;\r\n    }\r\n\r\n    function getBloodPack(string memory bloodPackId) public view returns (string memory, uint) {\r\n        BloodPack bloodPack = bloodPacks[bloodPackId];\r\n        return (bloodPack.id(), bloodPack.createdAt());\r\n    }\r\n\r\n    function getBloodPackAddress(string memory bloodPackId) public view returns (address) {\r\n        BloodPack bloodPack = bloodPacks[bloodPackId];\r\n        return address(bloodPack);\r\n    }\r\n\r\n    function createBloodPack(string memory bloodPackId) public onlyOwner {\r\n        BloodPack bloodPack = new BloodPack(bloodPackId);\r\n        bloodPacks[bloodPackId] = bloodPack;\r\n    }\r\n}\r\n",
  "sourcePath": "D:/Workspace/GitHub/THESIS/BloodChainContracts/contracts/BloodChain.sol",
  "compiler": {
    "name": "solc",
    "version": "0.5.0+commit.1d4f565a.Emscripten.clang"
  },
  "schemaVersion": "3.0.11",
  "updatedAt": "2019-08-08T02:26:27.367Z",
  "devdoc": {
    "methods": {
      "isOwner()": {
        "details": "Returns true if the caller is the current owner.\r"
      },
      "owner()": {
        "details": "Returns the address of the current owner.\r"
      },
      "renounceOwnership()": {
        "details": "Leaves the contract without owner. It will not be possible to call\r `onlyOwner` functions anymore. Can only be called by the current owner.\r      * NOTE: Renouncing ownership will leave the contract without an owner,\r thereby removing any functionality that is only available to the owner.\r"
      },
      "transferOwnership(address)": {
        "details": "Transfers ownership of the contract to a new account (`newOwner`).\r Can only be called by the current owner.\r"
      }
    }
  },
  "userdoc": {
    "methods": {}
  }
}