{
  "contractName": "BloodChain",
  "abi": [
    {
      "constant": false,
      "inputs": [],
      "name": "kill",
      "outputs": [],
      "payable": true,
      "stateMutability": "payable",
      "type": "function"
    },
    {
      "constant": false,
      "inputs": [],
      "name": "renounceOwnership",
      "outputs": [],
      "payable": false,
      "stateMutability": "nonpayable",
      "type": "function"
    },
    {
      "constant": true,
      "inputs": [],
      "name": "owner",
      "outputs": [
        {
          "name": "",
          "type": "address"
        }
      ],
      "payable": false,
      "stateMutability": "view",
      "type": "function"
    },
    {
      "constant": true,
      "inputs": [],
      "name": "isOwner",
      "outputs": [
        {
          "name": "",
          "type": "bool"
        }
      ],
      "payable": false,
      "stateMutability": "view",
      "type": "function"
    },
    {
      "constant": false,
      "inputs": [
        {
          "name": "newOwner",
          "type": "address"
        }
      ],
      "name": "transferOwnership",
      "outputs": [],
      "payable": false,
      "stateMutability": "nonpayable",
      "type": "function"
    },
    {
      "anonymous": false,
      "inputs": [
        {
          "indexed": true,
          "name": "previousOwner",
          "type": "address"
        },
        {
          "indexed": true,
          "name": "newOwner",
          "type": "address"
        }
      ],
      "name": "OwnershipTransferred",
      "type": "event"
    },
    {
      "constant": true,
      "inputs": [],
      "name": "getInfo",
      "outputs": [
        {
          "name": "",
          "type": "string"
        }
      ],
      "payable": false,
      "stateMutability": "pure",
      "type": "function"
    },
    {
      "constant": false,
      "inputs": [],
      "name": "sendFund",
      "outputs": [],
      "payable": true,
      "stateMutability": "payable",
      "type": "function"
    },
    {
      "constant": false,
      "inputs": [
        {
          "name": "amount",
          "type": "uint256"
        }
      ],
      "name": "withdraw",
      "outputs": [],
      "payable": true,
      "stateMutability": "payable",
      "type": "function"
    }
  ],
  "bytecode": "0x6080604081905260008054600160a060020a0319163317808255600160a060020a0316917f8be0079c531659141344cd1fd0a4f28419497f9722a3daafe3b4186f6b6457e0908290a3610603806100576000396000f3fe60806040526004361061008d5763ffffffff7c01000000000000000000000000000000000000000000000000000000006000350416632e1a7d4d811461009257806341c0e1b5146100b15780635a9b0b89146100b9578063715018a6146101435780638da5cb5b146101585780638f32d59b14610189578063dd0cf15d146101b2578063f2fde38b146101ba575b600080fd5b6100af600480360360208110156100a857600080fd5b50356101ed565b005b6100af6102cf565b3480156100c557600080fd5b506100ce610329565b6040805160208082528351818301528351919283929083019185019080838360005b838110156101085781810151838201526020016100f0565b50505050905090810190601f1680156101355780820380516001836020036101000a031916815260200191505b509250505060405180910390f35b34801561014f57600080fd5b506100af610360565b34801561016457600080fd5b5061016d610403565b60408051600160a060020a039092168252519081900360200190f35b34801561019557600080fd5b5061019e610412565b604080519115158252519081900360200190f35b6100af610423565b3480156101c657600080fd5b506100af600480360360208110156101dd57600080fd5b5035600160a060020a0316610471565b6101f5610412565b1515610239576040805160e560020a62461bcd02815260206004820181905260248201526000805160206105b8833981519152604482015290519081900360640190fd5b3031811115610292576040805160e560020a62461bcd02815260206004820152600e60248201527f4e6f7420656e6f75676820455448000000000000000000000000000000000000604482015290519081900360640190fd5b60008054604051600160a060020a039091169183156108fc02918491818181858888f193505050501580156102cb573d6000803e3d6000fd5b5050565b6102d7610412565b151561031b576040805160e560020a62461bcd02815260206004820181905260248201526000805160206105b8833981519152604482015290519081900360640190fd5b600054600160a060020a0316ff5b60408051808201909152601481527f426c6f6f6420436861696e20436f6e7472616374000000000000000000000000602082015290565b610368610412565b15156103ac576040805160e560020a62461bcd02815260206004820181905260248201526000805160206105b8833981519152604482015290519081900360640190fd5b60008054604051600160a060020a03909116907f8be0079c531659141344cd1fd0a4f28419497f9722a3daafe3b4186f6b6457e0908390a36000805473ffffffffffffffffffffffffffffffffffffffff19169055565b600054600160a060020a031690565b600054600160a060020a0316331490565b61042b610412565b151561046f576040805160e560020a62461bcd02815260206004820181905260248201526000805160206105b8833981519152604482015290519081900360640190fd5b565b610479610412565b15156104bd576040805160e560020a62461bcd02815260206004820181905260248201526000805160206105b8833981519152604482015290519081900360640190fd5b6104c6816104c9565b50565b600160a060020a038116151561054f576040805160e560020a62461bcd02815260206004820152602660248201527f4f776e61626c653a206e6577206f776e657220697320746865207a65726f206160448201527f6464726573730000000000000000000000000000000000000000000000000000606482015290519081900360840190fd5b60008054604051600160a060020a03808516939216917f8be0079c531659141344cd1fd0a4f28419497f9722a3daafe3b4186f6b6457e091a36000805473ffffffffffffffffffffffffffffffffffffffff1916600160a060020a039290921691909117905556fe4f776e61626c653a2063616c6c6572206973206e6f7420746865206f776e6572a165627a7a7230582004e0f3872274a782a96fdfeb324678f4e03187b8e8e8aa759908bf700a6ed15a0029",
  "source": "pragma solidity ^0.5.0;\r\n\r\nimport \"./openzeppelin/lifecycle/Killable.sol\";\r\nimport \"./openzeppelin/math/SafeMath.sol\";\r\n\r\ncontract BloodChain is Killable {\r\n    using SafeMath for uint256;\r\n\r\n    string constant CONTRACT_INFO = \"Blood Chain Contract\";\r\n\r\n    function getInfo() public pure returns (string memory) {\r\n        return CONTRACT_INFO;\r\n    }\r\n\r\n    function sendFund() public payable onlyOwner { }\r\n\r\n    function withdraw(uint amount) public payable onlyOwner {\r\n        require (amount <= address(this).balance, \"Not enough ETH\");\r\n        _owner.transfer(amount);\r\n    }\r\n}\r\n",
  "sourcePath": "D:/Workspace/GitHub/THESIS/BloodChainContracts/contracts/BloodChain.sol",
  "compiler": {
    "name": "solc",
    "version": "0.5.0+commit.1d4f565a.Emscripten.clang"
  },
  "schemaVersion": "3.0.11",
  "updatedAt": "2019-07-20T04:24:35.294Z",
  "devdoc": {
    "methods": {
      "isOwner()": {
        "details": "Returns true if the caller is the current owner.\r"
      },
      "owner()": {
        "details": "Returns the address of the current owner.\r"
      },
      "renounceOwnership()": {
        "details": "Leaves the contract without owner. It will not be possible to call\r `onlyOwner` functions anymore. Can only be called by the current owner.\r      * NOTE: Renouncing ownership will leave the contract without an owner,\r thereby removing any functionality that is only available to the owner.\r"
      },
      "transferOwnership(address)": {
        "details": "Transfers ownership of the contract to a new account (`newOwner`).\r Can only be called by the current owner.\r"
      }
    }
  },
  "userdoc": {
    "methods": {}
  }
}