{
  "contractName": "BloodChain",
  "abi": [
    {
      "constant": false,
      "inputs": [],
      "name": "kill",
      "outputs": [],
      "payable": true,
      "stateMutability": "payable",
      "type": "function"
    },
    {
      "constant": false,
      "inputs": [],
      "name": "renounceOwnership",
      "outputs": [],
      "payable": false,
      "stateMutability": "nonpayable",
      "type": "function"
    },
    {
      "constant": true,
      "inputs": [],
      "name": "owner",
      "outputs": [
        {
          "name": "",
          "type": "address"
        }
      ],
      "payable": false,
      "stateMutability": "view",
      "type": "function"
    },
    {
      "constant": true,
      "inputs": [],
      "name": "isOwner",
      "outputs": [
        {
          "name": "",
          "type": "bool"
        }
      ],
      "payable": false,
      "stateMutability": "view",
      "type": "function"
    },
    {
      "constant": false,
      "inputs": [
        {
          "name": "newOwner",
          "type": "address"
        }
      ],
      "name": "transferOwnership",
      "outputs": [],
      "payable": false,
      "stateMutability": "nonpayable",
      "type": "function"
    },
    {
      "anonymous": false,
      "inputs": [
        {
          "indexed": true,
          "name": "previousOwner",
          "type": "address"
        },
        {
          "indexed": true,
          "name": "newOwner",
          "type": "address"
        }
      ],
      "name": "OwnershipTransferred",
      "type": "event"
    },
    {
      "constant": true,
      "inputs": [],
      "name": "getInfo",
      "outputs": [
        {
          "name": "",
          "type": "string"
        }
      ],
      "payable": false,
      "stateMutability": "pure",
      "type": "function"
    },
    {
      "constant": false,
      "inputs": [],
      "name": "sendFund",
      "outputs": [],
      "payable": true,
      "stateMutability": "payable",
      "type": "function"
    },
    {
      "constant": false,
      "inputs": [
        {
          "name": "amount",
          "type": "uint256"
        }
      ],
      "name": "withdraw",
      "outputs": [],
      "payable": true,
      "stateMutability": "payable",
      "type": "function"
    },
    {
      "constant": false,
      "inputs": [
        {
          "name": "_bloodPackId",
          "type": "string"
        }
      ],
      "name": "createBloodPack",
      "outputs": [],
      "payable": false,
      "stateMutability": "nonpayable",
      "type": "function"
    },
    {
      "constant": true,
      "inputs": [
        {
          "name": "_bloodPackId",
          "type": "string"
        }
      ],
      "name": "getBloodPack",
      "outputs": [
        {
          "name": "",
          "type": "string"
        },
        {
          "name": "",
          "type": "uint256"
        }
      ],
      "payable": false,
      "stateMutability": "view",
      "type": "function"
    }
  ],
  "bytecode": "0x6080604081905260008054600160a060020a0319163317808255600160a060020a0316917f8be0079c531659141344cd1fd0a4f28419497f9722a3daafe3b4186f6b6457e0908290a361138d806100576000396000f3fe608060405260043610620000ae5763ffffffff7c01000000000000000000000000000000000000000000000000000000006000350416632e1a7d4d8114620000b357806341c0e1b514620000d55780635a9b0b8914620000df578063715018a6146200016f5780638da5cb5b14620001875780638f32d59b14620001bb578063db3d107f14620001e7578063dd0cf15d14620002a1578063ec1bc76914620002ab578063f2fde38b14620003e7575b600080fd5b620000d360048036036020811015620000cb57600080fd5b50356200041e565b005b620000d362000506565b348015620000ec57600080fd5b50620000f762000564565b6040805160208082528351818301528351919283929083019185019080838360005b838110156200013357818101518382015260200162000119565b50505050905090810190601f168015620001615780820380516001836020036101000a031916815260200191505b509250505060405180910390f35b3480156200017c57600080fd5b50620000d36200059b565b3480156200019457600080fd5b506200019f62000642565b60408051600160a060020a039092168252519081900360200190f35b348015620001c857600080fd5b50620001d362000651565b604080519115158252519081900360200190f35b348015620001f457600080fd5b50620000d3600480360360208110156200020d57600080fd5b8101906020810181356401000000008111156200022957600080fd5b8201836020820111156200023c57600080fd5b803590602001918460018302840111640100000000831117156200025f57600080fd5b91908080601f01602080910402602001604051908101604052809392919081815260200183838082843760009201919091525092955062000662945050505050565b620000d3620007dc565b348015620002b857600080fd5b506200036560048036036020811015620002d157600080fd5b810190602081018135640100000000811115620002ed57600080fd5b8201836020820111156200030057600080fd5b803590602001918460018302840111640100000000831117156200032357600080fd5b91908080601f0160208091040260200160405190810160405280939291908181526020018383808284376000920191909152509295506200082e945050505050565b6040518080602001838152602001828103825284818151815260200191508051906020019080838360005b83811015620003aa57818101518382015260200162000390565b50505050905090810190601f168015620003d85780820380516001836020036101000a031916815260200191505b50935050505060405180910390f35b348015620003f457600080fd5b50620000d3600480360360208110156200040d57600080fd5b5035600160a060020a031662000a0e565b6200042862000651565b15156200046e576040805160e560020a62461bcd028152602060048201819052602482015260008051602062001342833981519152604482015290519081900360640190fd5b3031811115620004c8576040805160e560020a62461bcd02815260206004820152600e60248201527f4e6f7420656e6f75676820455448000000000000000000000000000000000000604482015290519081900360640190fd5b60008054604051600160a060020a039091169183156108fc02918491818181858888f1935050505015801562000502573d6000803e3d6000fd5b5050565b6200051062000651565b151562000556576040805160e560020a62461bcd028152602060048201819052602482015260008051602062001342833981519152604482015290519081900360640190fd5b600054600160a060020a0316ff5b60408051808201909152601481527f426c6f6f6420436861696e20436f6e7472616374000000000000000000000000602082015290565b620005a562000651565b1515620005eb576040805160e560020a62461bcd028152602060048201819052602482015260008051602062001342833981519152604482015290519081900360640190fd5b60008054604051600160a060020a03909116907f8be0079c531659141344cd1fd0a4f28419497f9722a3daafe3b4186f6b6457e0908390a36000805473ffffffffffffffffffffffffffffffffffffffff19169055565b600054600160a060020a031690565b600054600160a060020a0316331490565b6200066c62000651565b1515620006b2576040805160e560020a62461bcd028152602060048201819052602482015260008051602062001342833981519152604482015290519081900360640190fd5b600081620006bf62000b5b565b60208082528251818301528251829160408301919085019080838360005b83811015620006f7578181015183820152602001620006dd565b50505050905090810190601f168015620007255780820380516001836020036101000a031916815260200191505b5092505050604051809103906000f08015801562000747573d6000803e3d6000fd5b509050806001836040518082805190602001908083835b602083106200077f5780518252601f1990920191602091820191016200075e565b51815160209384036101000a60001901801990921691161790529201948552506040519384900301909220805473ffffffffffffffffffffffffffffffffffffffff1916600160a060020a03949094169390931790925550505050565b620007e662000651565b15156200082c576040805160e560020a62461bcd028152602060048201819052602482015260008051602062001342833981519152604482015290519081900360640190fd5b565b60606000806001846040518082805190602001908083835b60208310620008675780518252601f19909201916020918201910162000846565b51815160209384036101000a600019018019909216911617905292019485525060408051948590039091018420547faf640d0f0000000000000000000000000000000000000000000000000000000085529051600160a060020a039091169450849363af640d0f93506004808201935060009291829003018186803b158015620008f057600080fd5b505afa15801562000905573d6000803e3d6000fd5b505050506040513d6000823e601f3d908101601f1916820160405260208110156200092f57600080fd5b8101908080516401000000008111156200094857600080fd5b820160208101848111156200095c57600080fd5b81516401000000008111828201871017156200097757600080fd5b505092919050505081600160a060020a031663cf09e0d06040518163ffffffff167c010000000000000000000000000000000000000000000000000000000002815260040160206040518083038186803b158015620009d557600080fd5b505afa158015620009ea573d6000803e3d6000fd5b505050506040513d602081101562000a0157600080fd5b5051909350915050915091565b62000a1862000651565b151562000a5e576040805160e560020a62461bcd028152602060048201819052602482015260008051602062001342833981519152604482015290519081900360640190fd5b62000a698162000a6c565b50565b600160a060020a038116151562000af3576040805160e560020a62461bcd02815260206004820152602660248201527f4f776e61626c653a206e6577206f776e657220697320746865207a65726f206160448201527f6464726573730000000000000000000000000000000000000000000000000000606482015290519081900360840190fd5b60008054604051600160a060020a03808516939216917f8be0079c531659141344cd1fd0a4f28419497f9722a3daafe3b4186f6b6457e091a36000805473ffffffffffffffffffffffffffffffffffffffff1916600160a060020a0392909216919091179055565b6040516107d58062000b6d8339019056fe608060405234801561001057600080fd5b506040516107d53803806107d58339810180604052602081101561003357600080fd5b81019080805164010000000081111561004b57600080fd5b8201602081018481111561005e57600080fd5b815164010000000081118282018710171561007857600080fd5b505060008054600160a060020a0319163317808255604051929550600160a060020a0316935091507f8be0079c531659141344cd1fd0a4f28419497f9722a3daafe3b4186f6b6457e0908290a360008054600160a060020a0319163317905580516100ea9060019060208401906101c9565b50610104426103e864010000000061049161010d82021704565b60025550610264565b600082151561011e575060006101c3565b82820282848281151561012d57fe5b04146101c057604080517f08c379a000000000000000000000000000000000000000000000000000000000815260206004820152602160248201527f536166654d6174683a206d756c7469706c69636174696f6e206f766572666c6f60448201527f7700000000000000000000000000000000000000000000000000000000000000606482015290519081900360840190fd5b90505b92915050565b828054600181600116156101000203166002900490600052602060002090601f016020900481019282601f1061020a57805160ff1916838001178555610237565b82800160010185558215610237579182015b8281111561023757825182559160200191906001019061021c565b50610243929150610247565b5090565b61026191905b80821115610243576000815560010161024d565b90565b610562806102736000396000f3fe6080604052600436106100775763ffffffff7c0100000000000000000000000000000000000000000000000000000000600035041663715018a6811461007c5780638da5cb5b146100935780638f32d59b146100c4578063af640d0f146100ed578063cf09e0d014610177578063f2fde38b1461019e575b600080fd5b34801561008857600080fd5b506100916101d1565b005b34801561009f57600080fd5b506100a8610286565b60408051600160a060020a039092168252519081900360200190f35b3480156100d057600080fd5b506100d9610295565b604080519115158252519081900360200190f35b3480156100f957600080fd5b506101026102a6565b6040805160208082528351818301528351919283929083019185019080838360005b8381101561013c578181015183820152602001610124565b50505050905090810190601f1680156101695780820380516001836020036101000a031916815260200191505b509250505060405180910390f35b34801561018357600080fd5b5061018c610333565b60408051918252519081900360200190f35b3480156101aa57600080fd5b50610091600480360360208110156101c157600080fd5b5035600160a060020a0316610339565b6101d9610295565b151561022f576040805160e560020a62461bcd02815260206004820181905260248201527f4f776e61626c653a2063616c6c6572206973206e6f7420746865206f776e6572604482015290519081900360640190fd5b60008054604051600160a060020a03909116907f8be0079c531659141344cd1fd0a4f28419497f9722a3daafe3b4186f6b6457e0908390a36000805473ffffffffffffffffffffffffffffffffffffffff19169055565b600054600160a060020a031690565b600054600160a060020a0316331490565b60018054604080516020600284861615610100026000190190941693909304601f8101849004840282018401909252818152929183018282801561032b5780601f106103005761010080835404028352916020019161032b565b820191906000526020600020905b81548152906001019060200180831161030e57829003601f168201915b505050505081565b60025481565b610341610295565b1515610397576040805160e560020a62461bcd02815260206004820181905260248201527f4f776e61626c653a2063616c6c6572206973206e6f7420746865206f776e6572604482015290519081900360640190fd5b6103a0816103a3565b50565b600160a060020a0381161515610429576040805160e560020a62461bcd02815260206004820152602660248201527f4f776e61626c653a206e6577206f776e657220697320746865207a65726f206160448201527f6464726573730000000000000000000000000000000000000000000000000000606482015290519081900360840190fd5b60008054604051600160a060020a03808516939216917f8be0079c531659141344cd1fd0a4f28419497f9722a3daafe3b4186f6b6457e091a36000805473ffffffffffffffffffffffffffffffffffffffff1916600160a060020a0392909216919091179055565b60008215156104a257506000610530565b8282028284828115156104b157fe5b041461052d576040805160e560020a62461bcd02815260206004820152602160248201527f536166654d6174683a206d756c7469706c69636174696f6e206f766572666c6f60448201527f7700000000000000000000000000000000000000000000000000000000000000606482015290519081900360840190fd5b90505b9291505056fea165627a7a72305820ae9be5d156d92acc69a5d98ebe7ba698529322cd19ae8b688afe32ee32528b8a00294f776e61626c653a2063616c6c6572206973206e6f7420746865206f776e6572a165627a7a72305820ebcfcb2e72a767aa71b4952141cab3e02574c554abee421b22803544acf48e050029",
  "source": "pragma solidity ^0.5.0;\r\n\r\nimport \"./openzeppelin/lifecycle/Killable.sol\";\r\nimport \"./openzeppelin/math/SafeMath.sol\";\r\nimport \"./BloodPack.sol\";\r\n\r\ncontract BloodChain is Killable {\r\n    using SafeMath for uint256;\r\n\r\n    string constant CONTRACT_INFO = \"Blood Chain Contract\";\r\n\r\n    mapping(string => BloodPack) private bloodPacks;\r\n\r\n    function getInfo() public pure returns (string memory) {\r\n        return CONTRACT_INFO;\r\n    }\r\n\r\n    function sendFund() public payable onlyOwner { }\r\n\r\n    function withdraw(uint amount) public payable onlyOwner {\r\n        require (amount <= address(this).balance, \"Not enough ETH\");\r\n        _owner.transfer(amount);\r\n    }\r\n\r\n    function createBloodPack(string memory _bloodPackId) public onlyOwner {\r\n        BloodPack bloodPack = new BloodPack(_bloodPackId);\r\n        bloodPacks[_bloodPackId] = bloodPack;\r\n    }\r\n\r\n    function getBloodPack(string memory _bloodPackId) public view returns (string memory, uint) {\r\n        BloodPack bloodPack = bloodPacks[_bloodPackId];\r\n        return (bloodPack.id(), bloodPack.createdAt());\r\n    }\r\n}\r\n",
  "sourcePath": "D:/Workspace/GitHub/THESIS/BloodChainContracts/contracts/BloodChain.sol",
  "compiler": {
    "name": "solc",
    "version": "0.5.0+commit.1d4f565a.Emscripten.clang"
  },
  "schemaVersion": "3.0.11",
  "updatedAt": "2019-07-21T04:07:40.228Z",
  "devdoc": {
    "methods": {
      "isOwner()": {
        "details": "Returns true if the caller is the current owner.\r"
      },
      "owner()": {
        "details": "Returns the address of the current owner.\r"
      },
      "renounceOwnership()": {
        "details": "Leaves the contract without owner. It will not be possible to call\r `onlyOwner` functions anymore. Can only be called by the current owner.\r      * NOTE: Renouncing ownership will leave the contract without an owner,\r thereby removing any functionality that is only available to the owner.\r"
      },
      "transferOwnership(address)": {
        "details": "Transfers ownership of the contract to a new account (`newOwner`).\r Can only be called by the current owner.\r"
      }
    }
  },
  "userdoc": {
    "methods": {}
  }
}