{
  "contractName": "BloodPack",
  "abi": [
    {
      "constant": true,
      "inputs": [],
      "name": "id",
      "outputs": [
        {
          "name": "",
          "type": "string"
        }
      ],
      "payable": false,
      "stateMutability": "view",
      "type": "function"
    },
    {
      "constant": true,
      "inputs": [],
      "name": "createdAt",
      "outputs": [
        {
          "name": "",
          "type": "uint256"
        }
      ],
      "payable": false,
      "stateMutability": "view",
      "type": "function"
    },
    {
      "inputs": [
        {
          "name": "_id",
          "type": "string"
        }
      ],
      "payable": false,
      "stateMutability": "nonpayable",
      "type": "constructor"
    },
    {
      "constant": true,
      "inputs": [],
      "name": "isOwner",
      "outputs": [
        {
          "name": "",
          "type": "bool"
        }
      ],
      "payable": false,
      "stateMutability": "view",
      "type": "function"
    },
    {
      "constant": false,
      "inputs": [
        {
          "name": "historyType",
          "type": "uint8"
        },
        {
          "name": "operatedBy",
          "type": "string"
        },
        {
          "name": "_id",
          "type": "string"
        },
        {
          "name": "from",
          "type": "string"
        },
        {
          "name": "to",
          "type": "string"
        },
        {
          "name": "description",
          "type": "string"
        }
      ],
      "name": "transfer",
      "outputs": [],
      "payable": false,
      "stateMutability": "nonpayable",
      "type": "function"
    },
    {
      "constant": true,
      "inputs": [],
      "name": "getHistoriesLength",
      "outputs": [
        {
          "name": "",
          "type": "uint256"
        }
      ],
      "payable": false,
      "stateMutability": "view",
      "type": "function"
    },
    {
      "constant": true,
      "inputs": [
        {
          "name": "index",
          "type": "uint256"
        }
      ],
      "name": "getHistory",
      "outputs": [
        {
          "name": "",
          "type": "uint8"
        },
        {
          "name": "",
          "type": "string"
        },
        {
          "name": "",
          "type": "string"
        },
        {
          "name": "",
          "type": "string"
        },
        {
          "name": "",
          "type": "string"
        },
        {
          "name": "",
          "type": "string"
        },
        {
          "name": "",
          "type": "uint256"
        }
      ],
      "payable": false,
      "stateMutability": "view",
      "type": "function"
    }
  ],
  "bytecode": "0x60806040523480156200001157600080fd5b506040516200113638038062001136833981018060405260208110156200003757600080fd5b8101908080516401000000008111156200005057600080fd5b820160208101848111156200006457600080fd5b81516401000000008111828201871017156200007f57600080fd5b505060008054600160a060020a031916321790558051909350620000ad925060019150602084019062000194565b50620000ca426103e864010000000062000d2f620000d482021704565b6002555062000239565b6000821515620000e7575060006200018e565b828202828482811515620000f757fe5b04146200018b57604080517f08c379a000000000000000000000000000000000000000000000000000000000815260206004820152602160248201527f536166654d6174683a206d756c7469706c69636174696f6e206f766572666c6f60448201527f7700000000000000000000000000000000000000000000000000000000000000606482015290519081900360840190fd5b90505b92915050565b828054600181600116156101000203166002900490600052602060002090601f016020900481019282601f10620001d757805160ff191683800117855562000207565b8280016001018555821562000207579182015b8281111562000207578251825591602001919060010190620001ea565b506200021592915062000219565b5090565b6200023691905b8082111562000215576000815560010162000220565b90565b610eed80620002496000396000f3fe6080604052600436106100775763ffffffff7c01000000000000000000000000000000000000000000000000000000006000350416632c544480811461007c5780638f32d59b146100a3578063af640d0f146100cc578063bafd0ccf14610156578063c8691b2a14610431578063cf09e0d014610687575b600080fd5b34801561008857600080fd5b5061009161069c565b60408051918252519081900360200190f35b3480156100af57600080fd5b506100b86106a3565b604080519115158252519081900360200190f35b3480156100d857600080fd5b506100e16106c1565b6040805160208082528351818301528351919283929083019185019080838360005b8381101561011b578181015183820152602001610103565b50505050905090810190601f1680156101485780820380516001836020036101000a031916815260200191505b509250505060405180910390f35b34801561016257600080fd5b5061042f600480360360c081101561017957600080fd5b60ff823516919081019060408101602082013564010000000081111561019e57600080fd5b8201836020820111156101b057600080fd5b803590602001918460018302840111640100000000831117156101d257600080fd5b91908080601f016020809104026020016040519081016040528093929190818152602001838380828437600092019190915250929594936020810193503591505064010000000081111561022557600080fd5b82018360208201111561023757600080fd5b8035906020019184600183028401116401000000008311171561025957600080fd5b91908080601f01602080910402602001604051908101604052809392919081815260200183838082843760009201919091525092959493602081019350359150506401000000008111156102ac57600080fd5b8201836020820111156102be57600080fd5b803590602001918460018302840111640100000000831117156102e057600080fd5b91908080601f016020809104026020016040519081016040528093929190818152602001838380828437600092019190915250929594936020810193503591505064010000000081111561033357600080fd5b82018360208201111561034557600080fd5b8035906020019184600183028401116401000000008311171561036757600080fd5b91908080601f01602080910402602001604051908101604052809392919081815260200183838082843760009201919091525092959493602081019350359150506401000000008111156103ba57600080fd5b8201836020820111156103cc57600080fd5b803590602001918460018302840111640100000000831117156103ee57600080fd5b91908080601f01602080910402602001604051908101604052809392919081815260200183838082843760009201919091525092955061074e945050505050565b005b34801561043d57600080fd5b5061045b6004803603602081101561045457600080fd5b503561091a565b6040518088600481111561046b57fe5b60ff168152602001806020018060200180602001806020018060200187815260200186810386528c818151815260200191508051906020019080838360005b838110156104c25781810151838201526020016104aa565b50505050905090810190601f1680156104ef5780820380516001836020036101000a031916815260200191505b5086810385528b5181528b516020918201918d019080838360005b8381101561052257818101518382015260200161050a565b50505050905090810190601f16801561054f5780820380516001836020036101000a031916815260200191505b5086810384528a5181528a516020918201918c019080838360005b8381101561058257818101518382015260200161056a565b50505050905090810190601f1680156105af5780820380516001836020036101000a031916815260200191505b5086810383528951815289516020918201918b019080838360005b838110156105e25781810151838201526020016105ca565b50505050905090810190601f16801561060f5780820380516001836020036101000a031916815260200191505b5086810382528851815288516020918201918a019080838360005b8381101561064257818101518382015260200161062a565b50505050905090810190601f16801561066f5780820380516001836020036101000a031916815260200191505b509c5050505050505050505050505060405180910390f35b34801561069357600080fd5b50610091610d29565b6003545b90565b60005473ffffffffffffffffffffffffffffffffffffffff16331490565b60018054604080516020600284861615610100026000190190941693909304601f810184900484028201840190925281815292918301828280156107465780601f1061071b57610100808354040283529160200191610746565b820191906000526020600020905b81548152906001019060200180831161072957829003601f168201915b505050505081565b6107566106a3565b15156107c357604080517f08c379a000000000000000000000000000000000000000000000000000000000815260206004820152601760248201527f43616c6c6572206973206e6f7420746865206f776e6572000000000000000000604482015290519081900360640190fd5b6107cb610deb565b60e0604051908101604052808860048111156107e357fe5b815260200187815260200186815260200185815260200184815260200183815260200161081b6103e842610d2f90919063ffffffff16565b9052600380546001818101808455600093909352835160079092027fc2575a0e9e593c00f959f8c92f12db2869c3395a3b0502d05e2516446f71f85b018054949550929385939291839160ff19169083600481111561087657fe5b021790555060208281015180516108939260018501920190610e29565b50604082015180516108af916002840191602090910190610e29565b50606082015180516108cb916003840191602090910190610e29565b50608082015180516108e7916004840191602090910190610e29565b5060a08201518051610903916005840191602090910190610e29565b5060c0820151816006015550505050505050505050565b600060608060608060606000808810158015610937575060035488105b15156109a457604080517f08c379a000000000000000000000000000000000000000000000000000000000815260206004820152601360248201527f496e646578206f7574206f6620626f756e647300000000000000000000000000604482015290519081900360640190fd5b6109ac610deb565b600380548a9081106109ba57fe5b600091825260209091206040805160e081019091526007909202018054829060ff1660048111156109e757fe5b60048111156109f257fe5b8152602001600182018054600181600116156101000203166002900480601f016020809104026020016040519081016040528092919081815260200182805460018160011615610100020316600290048015610a8f5780601f10610a6457610100808354040283529160200191610a8f565b820191906000526020600020905b815481529060010190602001808311610a7257829003601f168201915b5050509183525050600282810180546040805160206001841615610100026000190190931694909404601f81018390048302850183019091528084529381019390830182828015610b215780601f10610af657610100808354040283529160200191610b21565b820191906000526020600020905b815481529060010190602001808311610b0457829003601f168201915b505050918352505060038201805460408051602060026001851615610100026000190190941693909304601f8101849004840282018401909252818152938201939291830182828015610bb55780601f10610b8a57610100808354040283529160200191610bb5565b820191906000526020600020905b815481529060010190602001808311610b9857829003601f168201915b505050918352505060048201805460408051602060026001851615610100026000190190941693909304601f8101849004840282018401909252818152938201939291830182828015610c495780601f10610c1e57610100808354040283529160200191610c49565b820191906000526020600020905b815481529060010190602001808311610c2c57829003601f168201915b505050918352505060058201805460408051602060026001851615610100026000190190941693909304601f8101849004840282018401909252818152938201939291830182828015610cdd5780601f10610cb257610100808354040283529160200191610cdd565b820191906000526020600020905b815481529060010190602001808311610cc057829003601f168201915b50505091835250506006919091015460209182015281519082015160408301516060840151608085015160a086015160c090960151949f939e50919c509a509850919650945092505050565b60025481565b6000821515610d4057506000610de5565b828202828482811515610d4f57fe5b0414610de257604080517f08c379a000000000000000000000000000000000000000000000000000000000815260206004820152602160248201527f536166654d6174683a206d756c7469706c69636174696f6e206f766572666c6f60448201527f7700000000000000000000000000000000000000000000000000000000000000606482015290519081900360840190fd5b90505b92915050565b6040805160e0810190915280600081526020016060815260200160608152602001606081526020016060815260200160608152602001600081525090565b828054600181600116156101000203166002900490600052602060002090601f016020900481019282601f10610e6a57805160ff1916838001178555610e97565b82800160010185558215610e97579182015b82811115610e97578251825591602001919060010190610e7c565b50610ea3929150610ea7565b5090565b6106a091905b80821115610ea35760008155600101610ead56fea165627a7a72305820d6fd6a03bfd9ed554ac14b418c36aea9baf0819f34c577c769ccae536420c7630029",
  "source": "pragma solidity ^0.5.0;\r\n\r\nimport \"./openzeppelin/ownership/Ownable.sol\";\r\nimport \"./openzeppelin/math/SafeMath.sol\";\r\n\r\ncontract BloodPack {\r\n    using SafeMath for uint256;\r\n\r\n    enum HistoryType {\r\n        TransferBloodPack,\r\n        TransferBloodProduct,\r\n        DisposeBloodPack,\r\n        DisposeBloodProduct,\r\n        ConsumeBloodProduct\r\n    }\r\n\r\n    struct History {\r\n        HistoryType historyType;\r\n        string operatedBy;\r\n        string id;\r\n        string from;\r\n        string to;\r\n        string description;\r\n        uint transferedAt;\r\n    }\r\n\r\n    address owner;\r\n    string public id;\r\n    uint public createdAt;\r\n\r\n    History[] histories;\r\n\r\n    modifier onlyOwner() {\r\n        require(isOwner(), \"Caller is not the owner\");\r\n        _;\r\n    }\r\n\r\n    function isOwner() public view returns (bool) {\r\n        return msg.sender == owner;\r\n    }\r\n\r\n    constructor (string memory _id) public {\r\n        owner = tx.origin;\r\n        id = _id;\r\n        createdAt = now.mul(1000);\r\n    }\r\n\r\n    function transfer(\r\n        HistoryType historyType,\r\n        string memory operatedBy,\r\n        string memory _id,\r\n        string memory from, string memory to,\r\n        string memory description\r\n    ) public onlyOwner {\r\n        History memory history = History(historyType, operatedBy, _id, from, to, description, now.mul(1000));\r\n        histories.push(history);\r\n    }\r\n\r\n    function getHistoriesLength() public view returns (uint) {\r\n        return histories.length;\r\n    }\r\n\r\n    function getHistory(uint index) public view returns (\r\n        HistoryType, string memory, string memory,\r\n        string memory, string memory, string memory, uint\r\n    ) {\r\n        require(index >= 0 && index < histories.length, \"Index out of bounds\");\r\n        History memory history = histories[index];\r\n        return (\r\n            history.historyType, history.operatedBy,\r\n            history.id, history.from, history.to,\r\n            history.description, history.transferedAt\r\n        );\r\n    }\r\n}\r\n",
  "sourcePath": "D:\\Workspace\\GitHub\\THESIS\\BloodChainContracts\\contracts\\BloodPack.sol",
  "compiler": {
    "name": "solc",
    "version": "0.5.0+commit.1d4f565a.Emscripten.clang"
  },
  "schemaVersion": "3.0.11",
  "updatedAt": "2019-12-02T15:48:13.016Z",
  "devdoc": {
    "methods": {}
  },
  "userdoc": {
    "methods": {}
  }
}