{
  "contractName": "BloodChain",
  "abi": [
    {
      "constant": false,
      "inputs": [],
      "name": "kill",
      "outputs": [],
      "payable": true,
      "stateMutability": "payable",
      "type": "function"
    },
    {
      "constant": false,
      "inputs": [],
      "name": "renounceOwnership",
      "outputs": [],
      "payable": false,
      "stateMutability": "nonpayable",
      "type": "function"
    },
    {
      "constant": true,
      "inputs": [],
      "name": "owner",
      "outputs": [
        {
          "name": "",
          "type": "address"
        }
      ],
      "payable": false,
      "stateMutability": "view",
      "type": "function"
    },
    {
      "constant": true,
      "inputs": [],
      "name": "isOwner",
      "outputs": [
        {
          "name": "",
          "type": "bool"
        }
      ],
      "payable": false,
      "stateMutability": "view",
      "type": "function"
    },
    {
      "constant": false,
      "inputs": [
        {
          "name": "newOwner",
          "type": "address"
        }
      ],
      "name": "transferOwnership",
      "outputs": [],
      "payable": false,
      "stateMutability": "nonpayable",
      "type": "function"
    },
    {
      "anonymous": false,
      "inputs": [
        {
          "indexed": true,
          "name": "previousOwner",
          "type": "address"
        },
        {
          "indexed": true,
          "name": "newOwner",
          "type": "address"
        }
      ],
      "name": "OwnershipTransferred",
      "type": "event"
    },
    {
      "constant": true,
      "inputs": [],
      "name": "getInfo",
      "outputs": [
        {
          "name": "",
          "type": "string"
        }
      ],
      "payable": false,
      "stateMutability": "pure",
      "type": "function"
    },
    {
      "constant": false,
      "inputs": [],
      "name": "fund",
      "outputs": [],
      "payable": true,
      "stateMutability": "payable",
      "type": "function"
    },
    {
      "constant": false,
      "inputs": [
        {
          "name": "_address",
          "type": "address"
        },
        {
          "name": "amount",
          "type": "uint256"
        }
      ],
      "name": "transfer",
      "outputs": [],
      "payable": true,
      "stateMutability": "payable",
      "type": "function"
    },
    {
      "constant": true,
      "inputs": [
        {
          "name": "userId",
          "type": "string"
        }
      ],
      "name": "getUserInfo",
      "outputs": [
        {
          "name": "",
          "type": "string"
        },
        {
          "name": "",
          "type": "uint256"
        },
        {
          "name": "",
          "type": "uint256"
        }
      ],
      "payable": false,
      "stateMutability": "view",
      "type": "function"
    },
    {
      "constant": true,
      "inputs": [
        {
          "name": "userId",
          "type": "string"
        }
      ],
      "name": "getUserInfoAddress",
      "outputs": [
        {
          "name": "",
          "type": "address"
        }
      ],
      "payable": false,
      "stateMutability": "view",
      "type": "function"
    },
    {
      "constant": false,
      "inputs": [
        {
          "name": "userId",
          "type": "string"
        }
      ],
      "name": "createUserInfo",
      "outputs": [],
      "payable": false,
      "stateMutability": "nonpayable",
      "type": "function"
    },
    {
      "constant": true,
      "inputs": [
        {
          "name": "bloodPackId",
          "type": "string"
        }
      ],
      "name": "getBloodPack",
      "outputs": [
        {
          "name": "",
          "type": "string"
        },
        {
          "name": "",
          "type": "uint256"
        }
      ],
      "payable": false,
      "stateMutability": "view",
      "type": "function"
    },
    {
      "constant": true,
      "inputs": [
        {
          "name": "bloodPackId",
          "type": "string"
        }
      ],
      "name": "getBloodPackAddress",
      "outputs": [
        {
          "name": "",
          "type": "address"
        }
      ],
      "payable": false,
      "stateMutability": "view",
      "type": "function"
    },
    {
      "constant": false,
      "inputs": [
        {
          "name": "bloodPackId",
          "type": "string"
        }
      ],
      "name": "createBloodPack",
      "outputs": [],
      "payable": false,
      "stateMutability": "nonpayable",
      "type": "function"
    }
  ],
  "bytecode": "0x6080604081905260008054600160a060020a0319163317808255600160a060020a0316917f8be0079c531659141344cd1fd0a4f28419497f9722a3daafe3b4186f6b6457e0908290a3612e0e806100576000396000f3fe608060405260043610620000c55763ffffffff60e060020a60003504166341c0e1b58114620000ca5780635501067c14620000d65780635a9b0b8914620001ac578063715018a6146200023c5780637c9b7fdd14620002545780638da5cb5b14620003975780638f32d59b14620003af578063a9059cbb14620003db578063b60d4288146200040a578063db3d107f1462000414578063e58d689d14620004ce578063ec11f8a41462000588578063ec1bc7691462000642578063f2fde38b146200077e575b600080fd5b620000d4620007b5565b005b348015620000e357600080fd5b506200019060048036036020811015620000fc57600080fd5b8101906020810181356401000000008111156200011857600080fd5b8201836020820111156200012b57600080fd5b803590602001918460018302840111640100000000831117156200014e57600080fd5b91908080601f01602080910402602001604051908101604052809392919081815260200183838082843760009201919091525092955062000813945050505050565b60408051600160a060020a039092168252519081900360200190f35b348015620001b957600080fd5b50620001c462000888565b6040805160208082528351818301528351919283929083019185019080838360005b8381101562000200578181015183820152602001620001e6565b50505050905090810190601f1680156200022e5780820380516001836020036101000a031916815260200191505b509250505060405180910390f35b3480156200024957600080fd5b50620000d4620008bf565b3480156200026157600080fd5b506200030e600480360360208110156200027a57600080fd5b8101906020810181356401000000008111156200029657600080fd5b820183602082011115620002a957600080fd5b80359060200191846001830284011164010000000083111715620002cc57600080fd5b91908080601f01602080910402602001604051908101604052809392919081815260200183838082843760009201919091525092955062000966945050505050565b6040518080602001848152602001838152602001828103825285818151815260200191508051906020019080838360005b83811015620003595781810151838201526020016200033f565b50505050905090810190601f168015620003875780820380516001836020036101000a031916815260200191505b5094505050505060405180910390f35b348015620003a457600080fd5b506200019062000bba565b348015620003bc57600080fd5b50620003c762000bc9565b604080519115158252519081900360200190f35b620000d460048036036040811015620003f357600080fd5b50600160a060020a03813516906020013562000bda565b620000d462000cc0565b3480156200042157600080fd5b50620000d4600480360360208110156200043a57600080fd5b8101906020810181356401000000008111156200045657600080fd5b8201836020820111156200046957600080fd5b803590602001918460018302840111640100000000831117156200048c57600080fd5b91908080601f01602080910402602001604051908101604052809392919081815260200183838082843760009201919091525092955062000cc2945050505050565b348015620004db57600080fd5b506200019060048036036020811015620004f457600080fd5b8101906020810181356401000000008111156200051057600080fd5b8201836020820111156200052357600080fd5b803590602001918460018302840111640100000000831117156200054657600080fd5b91908080601f01602080910402602001604051908101604052809392919081815260200183838082843760009201919091525092955062000e3c945050505050565b3480156200059557600080fd5b50620000d460048036036020811015620005ae57600080fd5b810190602081018135640100000000811115620005ca57600080fd5b820183602082011115620005dd57600080fd5b803590602001918460018302840111640100000000831117156200060057600080fd5b91908080601f01602080910402602001604051908101604052809392919081815260200183838082843760009201919091525092955062000e72945050505050565b3480156200064f57600080fd5b50620006fc600480360360208110156200066857600080fd5b8101906020810181356401000000008111156200068457600080fd5b8201836020820111156200069757600080fd5b80359060200191846001830284011164010000000083111715620006ba57600080fd5b91908080601f01602080910402602001604051908101604052809392919081815260200183838082843760009201919091525092955062000f8e945050505050565b6040518080602001838152602001828103825284818151815260200191508051906020019080838360005b838110156200074157818101518382015260200162000727565b50505050905090810190601f1680156200076f5780820380516001836020036101000a031916815260200191505b50935050505060405180910390f35b3480156200078b57600080fd5b50620000d460048036036020811015620007a457600080fd5b5035600160a060020a031662001155565b620007bf62000bc9565b151562000805576040805160e560020a62461bcd028152602060048201819052602482015260008051602062002dc3833981519152604482015290519081900360640190fd5b600054600160a060020a0316ff5b6000806002836040518082805190602001908083835b602083106200084a5780518252601f19909201916020918201910162000829565b51815160209384036101000a6000190180199092169116179052920194855250604051938490030190922054600160a060020a031695945050505050565b60408051808201909152601481527f426c6f6f6420436861696e20436f6e7472616374000000000000000000000000602082015290565b620008c962000bc9565b15156200090f576040805160e560020a62461bcd028152602060048201819052602482015260008051602062002dc3833981519152604482015290519081900360640190fd5b60008054604051600160a060020a03909116907f8be0079c531659141344cd1fd0a4f28419497f9722a3daafe3b4186f6b6457e0908390a36000805473ffffffffffffffffffffffffffffffffffffffff19169055565b606060008060006001856040518082805190602001908083835b60208310620009a15780518252601f19909201916020918201910162000980565b51815160209384036101000a600019018019909216911617905292019485525060408051948590039091018420547faf640d0f0000000000000000000000000000000000000000000000000000000085529051600160a060020a039091169450849363af640d0f93506004808201935060009291829003018186803b15801562000a2a57600080fd5b505afa15801562000a3f573d6000803e3d6000fd5b505050506040513d6000823e601f3d908101601f19168201604052602081101562000a6957600080fd5b81019080805164010000000081111562000a8257600080fd5b8201602081018481111562000a9657600080fd5b815164010000000081118282018710171562000ab157600080fd5b505092919050505081600160a060020a031663cf09e0d06040518163ffffffff1660e060020a02815260040160206040518083038186803b15801562000af657600080fd5b505afa15801562000b0b573d6000803e3d6000fd5b505050506040513d602081101562000b2257600080fd5b5051604080517f2ba9fcd50000000000000000000000000000000000000000000000000000000081529051600160a060020a03851691632ba9fcd5916004808301926020929190829003018186803b15801562000b7e57600080fd5b505afa15801562000b93573d6000803e3d6000fd5b505050506040513d602081101562000baa57600080fd5b5051919790965090945092505050565b600054600160a060020a031690565b600054600160a060020a0316331490565b62000be462000bc9565b151562000c2a576040805160e560020a62461bcd028152602060048201819052602482015260008051602062002dc3833981519152604482015290519081900360640190fd5b303181111562000c84576040805160e560020a62461bcd02815260206004820152600e60248201527f4e6f7420656e6f75676820455448000000000000000000000000000000000000604482015290519081900360640190fd5b604051600160a060020a0383169082156108fc029083906000818181858888f1935050505015801562000cbb573d6000803e3d6000fd5b505050565b565b62000ccc62000bc9565b151562000d12576040805160e560020a62461bcd028152602060048201819052602482015260008051602062002dc3833981519152604482015290519081900360640190fd5b60008162000d1f620012a2565b60208082528251818301528251829160408301919085019080838360005b8381101562000d5757818101518382015260200162000d3d565b50505050905090810190601f16801562000d855780820380516001836020036101000a031916815260200191505b5092505050604051809103906000f08015801562000da7573d6000803e3d6000fd5b509050806002836040518082805190602001908083835b6020831062000ddf5780518252601f19909201916020918201910162000dbe565b51815160209384036101000a60001901801990921691161790529201948552506040519384900301909220805473ffffffffffffffffffffffffffffffffffffffff1916600160a060020a03949094169390931790925550505050565b600080600183604051808280519060200190808383602083106200084a5780518252601f19909201916020918201910162000829565b62000e7c62000bc9565b151562000ec2576040805160e560020a62461bcd028152602060048201819052602482015260008051602062002dc3833981519152604482015290519081900360640190fd5b60008162000ecf620012b3565b60208082528251818301528251829160408301919085019080838360005b8381101562000f0757818101518382015260200162000eed565b50505050905090810190601f16801562000f355780820380516001836020036101000a031916815260200191505b5092505050604051809103906000f08015801562000f57573d6000803e3d6000fd5b509050806001836040518082805190602001908083836020831062000ddf5780518252601f19909201916020918201910162000dbe565b60606000806002846040518082805190602001908083835b6020831062000fc75780518252601f19909201916020918201910162000fa6565b51815160209384036101000a600019018019909216911617905292019485525060408051948590039091018420547faf640d0f0000000000000000000000000000000000000000000000000000000085529051600160a060020a039091169450849363af640d0f93506004808201935060009291829003018186803b1580156200105057600080fd5b505afa15801562001065573d6000803e3d6000fd5b505050506040513d6000823e601f3d908101601f1916820160405260208110156200108f57600080fd5b810190808051640100000000811115620010a857600080fd5b82016020810184811115620010bc57600080fd5b8151640100000000811182820187101715620010d757600080fd5b505092919050505081600160a060020a031663cf09e0d06040518163ffffffff1660e060020a02815260040160206040518083038186803b1580156200111c57600080fd5b505afa15801562001131573d6000803e3d6000fd5b505050506040513d60208110156200114857600080fd5b5051909350915050915091565b6200115f62000bc9565b1515620011a5576040805160e560020a62461bcd028152602060048201819052602482015260008051602062002dc3833981519152604482015290519081900360640190fd5b620011b081620011b3565b50565b600160a060020a03811615156200123a576040805160e560020a62461bcd02815260206004820152602660248201527f4f776e61626c653a206e6577206f776e657220697320746865207a65726f206160448201527f6464726573730000000000000000000000000000000000000000000000000000606482015290519081900360840190fd5b60008054604051600160a060020a03808516939216917f8be0079c531659141344cd1fd0a4f28419497f9722a3daafe3b4186f6b6457e091a36000805473ffffffffffffffffffffffffffffffffffffffff1916600160a060020a0392909216919091179055565b604051610f8280620012c583390190565b604051610b7c80620022478339019056fe60806040523480156200001157600080fd5b5060405162000f8238038062000f82833981018060405260208110156200003757600080fd5b8101908080516401000000008111156200005057600080fd5b820160208101848111156200006457600080fd5b81516401000000008111828201871017156200007f57600080fd5b505060008054600160a060020a031916321790558051909350620000ad925060019150602084019062000194565b50620000ca426103e864010000000062000b82620000d482021704565b6002555062000239565b6000821515620000e7575060006200018e565b828202828482811515620000f757fe5b04146200018b57604080517f08c379a000000000000000000000000000000000000000000000000000000000815260206004820152602160248201527f536166654d6174683a206d756c7469706c69636174696f6e206f766572666c6f60448201527f7700000000000000000000000000000000000000000000000000000000000000606482015290519081900360840190fd5b90505b92915050565b828054600181600116156101000203166002900490600052602060002090601f016020900481019282601f10620001d757805160ff191683800117855562000207565b8280016001018555821562000207579182015b8281111562000207578251825591602001919060010190620001ea565b506200021592915062000219565b5090565b6200023691905b8082111562000215576000815560010162000220565b90565b610d3980620002496000396000f3fe6080604052600436106100775763ffffffff7c01000000000000000000000000000000000000000000000000000000006000350416632c544480811461007c5780637c7598b1146100a35780638f32d59b146102f7578063af640d0f14610320578063c8691b2a146103aa578063cf09e0d01461059a575b600080fd5b34801561008857600080fd5b506100916105af565b60408051918252519081900360200190f35b3480156100af57600080fd5b506102f5600480360360a08110156100c657600080fd5b60ff82351691908101906040810160208201356401000000008111156100eb57600080fd5b8201836020820111156100fd57600080fd5b8035906020019184600183028401116401000000008311171561011f57600080fd5b91908080601f016020809104026020016040519081016040528093929190818152602001838380828437600092019190915250929594936020810193503591505064010000000081111561017257600080fd5b82018360208201111561018457600080fd5b803590602001918460018302840111640100000000831117156101a657600080fd5b91908080601f01602080910402602001604051908101604052809392919081815260200183838082843760009201919091525092959493602081019350359150506401000000008111156101f957600080fd5b82018360208201111561020b57600080fd5b8035906020019184600183028401116401000000008311171561022d57600080fd5b91908080601f016020809104026020016040519081016040528093929190818152602001838380828437600092019190915250929594936020810193503591505064010000000081111561028057600080fd5b82018360208201111561029257600080fd5b803590602001918460018302840111640100000000831117156102b457600080fd5b91908080601f0160208091040260200160405190810160405280939291908181526020018383808284376000920191909152509295506105b6945050505050565b005b34801561030357600080fd5b5061030c61075f565b604080519115158252519081900360200190f35b34801561032c57600080fd5b5061033561077d565b6040805160208082528351818301528351919283929083019185019080838360005b8381101561036f578181015183820152602001610357565b50505050905090810190601f16801561039c5780820380516001836020036101000a031916815260200191505b509250505060405180910390f35b3480156103b657600080fd5b506103d4600480360360208110156103cd57600080fd5b503561080a565b604051808760028111156103e457fe5b60ff1681526020018060200180602001806020018060200186815260200185810385528a818151815260200191508051906020019080838360005b8381101561043757818101518382015260200161041f565b50505050905090810190601f1680156104645780820380516001836020036101000a031916815260200191505b5085810384528951815289516020918201918b019080838360005b8381101561049757818101518382015260200161047f565b50505050905090810190601f1680156104c45780820380516001836020036101000a031916815260200191505b5085810383528851815288516020918201918a019080838360005b838110156104f75781810151838201526020016104df565b50505050905090810190601f1680156105245780820380516001836020036101000a031916815260200191505b50858103825287518152875160209182019189019080838360005b8381101561055757818101518382015260200161053f565b50505050905090810190601f1680156105845780820380516001836020036101000a031916815260200191505b509a505050505050505050505060405180910390f35b3480156105a657600080fd5b50610091610b7c565b6003545b90565b6105be61075f565b151561062b57604080517f08c379a000000000000000000000000000000000000000000000000000000000815260206004820152601760248201527f43616c6c6572206973206e6f7420746865206f776e6572000000000000000000604482015290519081900360640190fd5b610633610c3e565b60c06040519081016040528087600281111561064b57fe5b815260200186815260200185815260200184815260200183815260200161067d6103e842610b8290919063ffffffff16565b9052600380546001818101808455600093909352835160069092027fc2575a0e9e593c00f959f8c92f12db2869c3395a3b0502d05e2516446f71f85b018054949550929385939291839160ff1916908360028111156106d857fe5b021790555060208281015180516106f59260018501920190610c75565b5060408201518051610711916002840191602090910190610c75565b506060820151805161072d916003840191602090910190610c75565b5060808201518051610749916004840191602090910190610c75565b5060a08201518160050155505050505050505050565b60005473ffffffffffffffffffffffffffffffffffffffff16331490565b60018054604080516020600284861615610100026000190190941693909304601f810184900484028201840190925281815292918301828280156108025780601f106107d757610100808354040283529160200191610802565b820191906000526020600020905b8154815290600101906020018083116107e557829003601f168201915b505050505081565b60006060806060806000808710158015610825575060035487105b151561089257604080517f08c379a000000000000000000000000000000000000000000000000000000000815260206004820152601360248201527f496e646578206f7574206f6620626f756e647300000000000000000000000000604482015290519081900360640190fd5b61089a610c3e565b60038054899081106108a857fe5b600091825260209091206040805160c081019091526006909202018054829060ff1660028111156108d557fe5b60028111156108e057fe5b8152602001600182018054600181600116156101000203166002900480601f01602080910402602001604051908101604052809291908181526020018280546001816001161561010002031660029004801561097d5780601f106109525761010080835404028352916020019161097d565b820191906000526020600020905b81548152906001019060200180831161096057829003601f168201915b5050509183525050600282810180546040805160206001841615610100026000190190931694909404601f81018390048302850183019091528084529381019390830182828015610a0f5780601f106109e457610100808354040283529160200191610a0f565b820191906000526020600020905b8154815290600101906020018083116109f257829003601f168201915b505050918352505060038201805460408051602060026001851615610100026000190190941693909304601f8101849004840282018401909252818152938201939291830182828015610aa35780601f10610a7857610100808354040283529160200191610aa3565b820191906000526020600020905b815481529060010190602001808311610a8657829003601f168201915b505050918352505060048201805460408051602060026001851615610100026000190190941693909304601f8101849004840282018401909252818152938201939291830182828015610b375780601f10610b0c57610100808354040283529160200191610b37565b820191906000526020600020905b815481529060010190602001808311610b1a57829003601f168201915b50505091835250506005919091015460209182015281519082015160408301516060840151608085015160a090950151939d929c50909a509850919650945092505050565b60025481565b6000821515610b9357506000610c38565b828202828482811515610ba257fe5b0414610c3557604080517f08c379a000000000000000000000000000000000000000000000000000000000815260206004820152602160248201527f536166654d6174683a206d756c7469706c69636174696f6e206f766572666c6f60448201527f7700000000000000000000000000000000000000000000000000000000000000606482015290519081900360840190fd5b90505b92915050565b6040805160c08101909152806000815260200160608152602001606081526020016060815260200160608152602001600081525090565b828054600181600116156101000203166002900490600052602060002090601f016020900481019282601f10610cb657805160ff1916838001178555610ce3565b82800160010185558215610ce3579182015b82811115610ce3578251825591602001919060010190610cc8565b50610cef929150610cf3565b5090565b6105b391905b80821115610cef5760008155600101610cf956fea165627a7a72305820b1b1a5baa25fbd1f5da779ec83393a9a7c43dab993400622fd46196524c414120029608060405234801561001057600080fd5b50604051610b7c380380610b7c8339810180604052602081101561003357600080fd5b81019080805164010000000081111561004b57600080fd5b8201602081018481111561005e57600080fd5b815164010000000081118282018710171561007857600080fd5b505060008054600160a060020a0319163217905580519093506100a49250600191506020840190610188565b506100be426103e86401000000006107c16100cc82021704565b600255506000600355610223565b60008215156100dd57506000610182565b8282028284828115156100ec57fe5b041461017f57604080517f08c379a000000000000000000000000000000000000000000000000000000000815260206004820152602160248201527f536166654d6174683a206d756c7469706c69636174696f6e206f766572666c6f60448201527f7700000000000000000000000000000000000000000000000000000000000000606482015290519081900360840190fd5b90505b92915050565b828054600181600116156101000203166002900490600052602060002090601f016020900481019282601f106101c957805160ff19168380011785556101f6565b828001600101855582156101f6579182015b828111156101f65782518255916020019190600101906101db565b50610202929150610206565b5090565b61022091905b80821115610202576000815560010161020c565b90565b61094a806102326000396000f3fe6080604052600436106100825763ffffffff7c01000000000000000000000000000000000000000000000000000000006000350416632ba9fcd581146100875780632c544480146100ae578063498c583e146100c35780638f32d59b14610187578063af640d0f146101b0578063c8691b2a1461023a578063cf09e0d0146102ff575b600080fd5b34801561009357600080fd5b5061009c610314565b60408051918252519081900360200190f35b3480156100ba57600080fd5b5061009c61031a565b3480156100cf57600080fd5b50610185600480360360608110156100e657600080fd5b60ff8235169160208101359181019060608101604082013564010000000081111561011057600080fd5b82018360208201111561012257600080fd5b8035906020019184600183028401116401000000008311171561014457600080fd5b91908080601f016020809104026020016040519081016040528093929190818152602001838380828437600092019190915250929550610321945050505050565b005b34801561019357600080fd5b5061019c6104b1565b604080519115158252519081900360200190f35b3480156101bc57600080fd5b506101c56104cf565b6040805160208082528351818301528351919283929083019185019080838360005b838110156101ff5781810151838201526020016101e7565b50505050905090810190601f16801561022c5780820380516001836020036101000a031916815260200191505b509250505060405180910390f35b34801561024657600080fd5b506102646004803603602081101561025d57600080fd5b503561055c565b6040518085600181111561027457fe5b60ff16815260200184815260200180602001838152602001828103825284818151815260200191508051906020019080838360005b838110156102c15781810151838201526020016102a9565b50505050905090810190601f1680156102ee5780820380516001836020036101000a031916815260200191505b509550505050505060405180910390f35b34801561030b57600080fd5b5061009c6106f5565b60035481565b6004545b90565b6103296104b1565b151561037f576040805160e560020a62461bcd02815260206004820152601760248201527f43616c6c6572206973206e6f7420746865206f776e6572000000000000000000604482015290519081900360640190fd5b600083600181111561038d57fe5b14156103ae576003546103a6908363ffffffff6106fb16565b6003556103d9565b60018360018111156103bc57fe5b14156103d9576003546103d5908363ffffffff61076116565b6003555b6103e161085d565b6080604051908101604052808560018111156103f957fe5b8152602081018590526040810184905260600161041e426103e863ffffffff6107c116565b905260048054600181810180845560008490528451929093027f8a35acfbc15ff81a39ae7d344fd709f28e8600b4aa8c65c6b64bfe7fe36bd19b018054949550929385939291839160ff191690838181111561047657fe5b021790555060208281015160018301556040830151805161049d9260028501920190610886565b506060820151816003015550505050505050565b60005473ffffffffffffffffffffffffffffffffffffffff16331490565b60018054604080516020600284861615610100026000190190941693909304601f810184900484028201840190925281815292918301828280156105545780601f1061052957610100808354040283529160200191610554565b820191906000526020600020905b81548152906001019060200180831161053757829003601f168201915b505050505081565b60008060606000808510158015610574575060045485105b15156105ca576040805160e560020a62461bcd02815260206004820152601360248201527f496e646578206f7574206f6620626f756e647300000000000000000000000000604482015290519081900360640190fd5b6105d261085d565b60048054879081106105e057fe5b6000918252602090912060408051608081019091526004909202018054829060ff16600181111561060d57fe5b600181111561061857fe5b815260200160018201548152602001600282018054600181600116156101000203166002900480601f0160208091040260200160405190810160405280929190818152602001828054600181600116156101000203166002900480156106bf5780601f10610694576101008083540402835291602001916106bf565b820191906000526020600020905b8154815290600101906020018083116106a257829003601f168201915b50505091835250506003919091015460209182015281519082015160408301516060909301519199909850919650945092505050565b60025481565b600082820183811015610758576040805160e560020a62461bcd02815260206004820152601b60248201527f536166654d6174683a206164646974696f6e206f766572666c6f770000000000604482015290519081900360640190fd5b90505b92915050565b6000828211156107bb576040805160e560020a62461bcd02815260206004820152601e60248201527f536166654d6174683a207375627472616374696f6e206f766572666c6f770000604482015290519081900360640190fd5b50900390565b60008215156107d25750600061075b565b8282028284828115156107e157fe5b0414610758576040805160e560020a62461bcd02815260206004820152602160248201527f536166654d6174683a206d756c7469706c69636174696f6e206f766572666c6f60448201527f7700000000000000000000000000000000000000000000000000000000000000606482015290519081900360840190fd5b604080516080810190915280600081526020016000815260200160608152602001600081525090565b828054600181600116156101000203166002900490600052602060002090601f016020900481019282601f106108c757805160ff19168380011785556108f4565b828001600101855582156108f4579182015b828111156108f45782518255916020019190600101906108d9565b50610900929150610904565b5090565b61031e91905b80821115610900576000815560010161090a56fea165627a7a72305820be6958ba63dec1397b001f68b02a41b2da309b925d1a8ce7a2e9730b9e5141d400294f776e61626c653a2063616c6c6572206973206e6f7420746865206f776e6572a165627a7a72305820a1287fa6bef5d66bbd7dbd776dcf808089de29204f2392a7de1df784c22510030029",
  "source": "pragma solidity ^0.5.0;\r\n\r\nimport \"./openzeppelin/lifecycle/Killable.sol\";\r\nimport \"./openzeppelin/math/SafeMath.sol\";\r\nimport \"./UserInfo.sol\";\r\nimport \"./BloodPack.sol\";\r\n\r\ncontract BloodChain is Killable {\r\n    using SafeMath for uint256;\r\n\r\n    string constant CONTRACT_INFO = \"Blood Chain Contract\";\r\n\r\n    mapping(string => UserInfo) private userInfos;\r\n    mapping(string => BloodPack) private bloodPacks;\r\n\r\n    function getInfo() public pure returns (string memory) {\r\n        return CONTRACT_INFO;\r\n    }\r\n\r\n    function fund() public payable { }\r\n\r\n    function transfer(address payable _address, uint amount) public payable onlyOwner {\r\n        require (amount <= address(this).balance, \"Not enough ETH\");\r\n        _address.transfer(amount);\r\n    }\r\n\r\n    function getUserInfo(string memory userId) public view returns (string memory, uint, uint) {\r\n        UserInfo userInfo = userInfos[userId];\r\n        return (userInfo.id(), userInfo.createdAt(), userInfo.point());\r\n    }\r\n\r\n    function getUserInfoAddress(string memory userId) public view returns (address) {\r\n        UserInfo userInfo = userInfos[userId];\r\n        return address(userInfo);\r\n    }\r\n\r\n    function createUserInfo(string memory userId) public onlyOwner {\r\n        UserInfo userInfo = new UserInfo(userId);\r\n        userInfos[userId] = userInfo;\r\n    }\r\n\r\n    function getBloodPack(string memory bloodPackId) public view returns (string memory, uint) {\r\n        BloodPack bloodPack = bloodPacks[bloodPackId];\r\n        return (bloodPack.id(), bloodPack.createdAt());\r\n    }\r\n\r\n    function getBloodPackAddress(string memory bloodPackId) public view returns (address) {\r\n        BloodPack bloodPack = bloodPacks[bloodPackId];\r\n        return address(bloodPack);\r\n    }\r\n\r\n    function createBloodPack(string memory bloodPackId) public onlyOwner {\r\n        BloodPack bloodPack = new BloodPack(bloodPackId);\r\n        bloodPacks[bloodPackId] = bloodPack;\r\n    }\r\n}\r\n",
  "sourcePath": "D:/Workspace/GitHub/THESIS/BloodChainContracts/contracts/BloodChain.sol",
  "compiler": {
    "name": "solc",
    "version": "0.5.0+commit.1d4f565a.Emscripten.clang"
  },
  "schemaVersion": "3.0.11",
  "updatedAt": "2019-08-16T14:19:26.777Z",
  "devdoc": {
    "methods": {
      "isOwner()": {
        "details": "Returns true if the caller is the current owner.\r"
      },
      "owner()": {
        "details": "Returns the address of the current owner.\r"
      },
      "renounceOwnership()": {
        "details": "Leaves the contract without owner. It will not be possible to call\r `onlyOwner` functions anymore. Can only be called by the current owner.\r      * NOTE: Renouncing ownership will leave the contract without an owner,\r thereby removing any functionality that is only available to the owner.\r"
      },
      "transferOwnership(address)": {
        "details": "Transfers ownership of the contract to a new account (`newOwner`).\r Can only be called by the current owner.\r"
      }
    }
  },
  "userdoc": {
    "methods": {}
  }
}