{
  "contractName": "BloodPack",
  "abi": [
    {
      "constant": true,
      "inputs": [],
      "name": "id",
      "outputs": [
        {
          "name": "",
          "type": "string"
        }
      ],
      "payable": false,
      "stateMutability": "view",
      "type": "function"
    },
    {
      "constant": true,
      "inputs": [],
      "name": "createdAt",
      "outputs": [
        {
          "name": "",
          "type": "uint256"
        }
      ],
      "payable": false,
      "stateMutability": "view",
      "type": "function"
    },
    {
      "inputs": [
        {
          "name": "_id",
          "type": "string"
        }
      ],
      "payable": false,
      "stateMutability": "nonpayable",
      "type": "constructor"
    },
    {
      "constant": true,
      "inputs": [],
      "name": "isOwner",
      "outputs": [
        {
          "name": "",
          "type": "bool"
        }
      ],
      "payable": false,
      "stateMutability": "view",
      "type": "function"
    },
    {
      "constant": false,
      "inputs": [
        {
          "name": "fromType",
          "type": "string"
        },
        {
          "name": "to",
          "type": "string"
        },
        {
          "name": "description",
          "type": "string"
        }
      ],
      "name": "transfer",
      "outputs": [],
      "payable": false,
      "stateMutability": "nonpayable",
      "type": "function"
    },
    {
      "constant": true,
      "inputs": [],
      "name": "getHistoriesLength",
      "outputs": [
        {
          "name": "",
          "type": "uint256"
        }
      ],
      "payable": false,
      "stateMutability": "view",
      "type": "function"
    },
    {
      "constant": true,
      "inputs": [
        {
          "name": "index",
          "type": "uint256"
        }
      ],
      "name": "getHistory",
      "outputs": [
        {
          "name": "",
          "type": "string"
        },
        {
          "name": "",
          "type": "string"
        },
        {
          "name": "",
          "type": "string"
        },
        {
          "name": "",
          "type": "uint256"
        }
      ],
      "payable": false,
      "stateMutability": "view",
      "type": "function"
    }
  ],
  "bytecode": "0x60806040523480156200001157600080fd5b5060405162000d4038038062000d40833981018060405260208110156200003757600080fd5b8101908080516401000000008111156200005057600080fd5b820160208101848111156200006457600080fd5b81516401000000008111828201871017156200007f57600080fd5b505060008054600160a060020a031916321790558051909350620000ad925060019150602084019062000194565b50620000ca426103e86401000000006200094e620000d482021704565b6002555062000239565b6000821515620000e7575060006200018e565b828202828482811515620000f757fe5b04146200018b57604080517f08c379a000000000000000000000000000000000000000000000000000000000815260206004820152602160248201527f536166654d6174683a206d756c7469706c69636174696f6e206f766572666c6f60448201527f7700000000000000000000000000000000000000000000000000000000000000606482015290519081900360840190fd5b90505b92915050565b828054600181600116156101000203166002900490600052602060002090601f016020900481019282601f10620001d757805160ff191683800117855562000207565b8280016001018555821562000207579182015b8281111562000207578251825591602001919060010190620001ea565b506200021592915062000219565b5090565b6200023691905b8082111562000215576000815560010162000220565b90565b610af780620002496000396000f3fe6080604052600436106100775763ffffffff7c01000000000000000000000000000000000000000000000000000000006000350416632c544480811461007c5780638f32d59b146100a3578063af640d0f146100cc578063b8510edb14610156578063c8691b2a14610319578063cf09e0d01461048e575b600080fd5b34801561008857600080fd5b506100916104a3565b60408051918252519081900360200190f35b3480156100af57600080fd5b506100b86104aa565b604080519115158252519081900360200190f35b3480156100d857600080fd5b506100e16104c8565b6040805160208082528351818301528351919283929083019185019080838360005b8381101561011b578181015183820152602001610103565b50505050905090810190601f1680156101485780820380516001836020036101000a031916815260200191505b509250505060405180910390f35b34801561016257600080fd5b506103176004803603606081101561017957600080fd5b81019060208101813564010000000081111561019457600080fd5b8201836020820111156101a657600080fd5b803590602001918460018302840111640100000000831117156101c857600080fd5b91908080601f016020809104026020016040519081016040528093929190818152602001838380828437600092019190915250929594936020810193503591505064010000000081111561021b57600080fd5b82018360208201111561022d57600080fd5b8035906020019184600183028401116401000000008311171561024f57600080fd5b91908080601f01602080910402602001604051908101604052809392919081815260200183838082843760009201919091525092959493602081019350359150506401000000008111156102a257600080fd5b8201836020820111156102b457600080fd5b803590602001918460018302840111640100000000831117156102d657600080fd5b91908080601f016020809104026020016040519081016040528093929190818152602001838380828437600092019190915250929550610555945050505050565b005b34801561032557600080fd5b506103436004803603602081101561033c57600080fd5b50356106a0565b60405180806020018060200180602001858152602001848103845288818151815260200191508051906020019080838360005b8381101561038e578181015183820152602001610376565b50505050905090810190601f1680156103bb5780820380516001836020036101000a031916815260200191505b50848103835287518152875160209182019189019080838360005b838110156103ee5781810151838201526020016103d6565b50505050905090810190601f16801561041b5780820380516001836020036101000a031916815260200191505b50848103825286518152865160209182019188019080838360005b8381101561044e578181015183820152602001610436565b50505050905090810190601f16801561047b5780820380516001836020036101000a031916815260200191505b5097505050505050505060405180910390f35b34801561049a57600080fd5b50610091610948565b6003545b90565b60005473ffffffffffffffffffffffffffffffffffffffff16331490565b60018054604080516020600284861615610100026000190190941693909304601f8101849004840282018401909252818152929183018282801561054d5780601f106105225761010080835404028352916020019161054d565b820191906000526020600020905b81548152906001019060200180831161053057829003601f168201915b505050505081565b61055d6104aa565b15156105ca57604080517f08c379a000000000000000000000000000000000000000000000000000000000815260206004820152601760248201527f43616c6c6572206973206e6f7420746865206f776e6572000000000000000000604482015290519081900360640190fd5b6105d2610a0a565b604080516080810182528581526020810185905290810183905260608101610602426103e863ffffffff61094e16565b90526003805460018101808355600092909252825180519394509192849260049092027fc2575a0e9e593c00f959f8c92f12db2869c3395a3b0502d05e2516446f71f85b019161065791839160200190610a33565b5060208281015180516106709260018501920190610a33565b506040820151805161068c916002840191602090910190610a33565b506060820151816003015550505050505050565b606080606060008085101580156106b8575060035485105b151561072557604080517f08c379a000000000000000000000000000000000000000000000000000000000815260206004820152601360248201527f496e646578206f7574206f6620626f756e647300000000000000000000000000604482015290519081900360640190fd5b61072d610a0a565b600380548790811061073b57fe5b600091825260209182902060408051600493909302909101805460026001821615610100026000190190911604601f8101859004909402830160a090810190925260808301848152929390928492909184918401828280156107de5780601f106107b3576101008083540402835291602001916107de565b820191906000526020600020905b8154815290600101906020018083116107c157829003601f168201915b50505050508152602001600182018054600181600116156101000203166002900480601f0160208091040260200160405190810160405280929190818152602001828054600181600116156101000203166002900480156108805780601f1061085557610100808354040283529160200191610880565b820191906000526020600020905b81548152906001019060200180831161086357829003601f168201915b5050509183525050600282810180546040805160206001841615610100026000190190931694909404601f810183900483028501830190915280845293810193908301828280156109125780601f106108e757610100808354040283529160200191610912565b820191906000526020600020905b8154815290600101906020018083116108f557829003601f168201915b50505091835250506003919091015460209182015281519082015160408301516060909301519199909850919650945092505050565b60025481565b600082151561095f57506000610a04565b82820282848281151561096e57fe5b0414610a0157604080517f08c379a000000000000000000000000000000000000000000000000000000000815260206004820152602160248201527f536166654d6174683a206d756c7469706c69636174696f6e206f766572666c6f60448201527f7700000000000000000000000000000000000000000000000000000000000000606482015290519081900360840190fd5b90505b92915050565b608060405190810160405280606081526020016060815260200160608152602001600081525090565b828054600181600116156101000203166002900490600052602060002090601f016020900481019282601f10610a7457805160ff1916838001178555610aa1565b82800160010185558215610aa1579182015b82811115610aa1578251825591602001919060010190610a86565b50610aad929150610ab1565b5090565b6104a791905b80821115610aad5760008155600101610ab756fea165627a7a72305820dc9fc7e9903b88bc1f9dc9ca7a81361e0994440b58939caca614c4dce38a70800029",
  "source": "pragma solidity ^0.5.0;\r\n\r\nimport \"./openzeppelin/ownership/Ownable.sol\";\r\nimport \"./openzeppelin/math/SafeMath.sol\";\r\n\r\ncontract BloodPack {\r\n    using SafeMath for uint256;\r\n\r\n    struct History {\r\n        string from;\r\n        string to;\r\n        string description;\r\n        uint transferedAt;\r\n    }\r\n\r\n    address owner;\r\n    string public id;\r\n    uint public createdAt;\r\n\r\n    History[] histories;\r\n\r\n    modifier onlyOwner() {\r\n        require(isOwner(), \"Caller is not the owner\");\r\n        _;\r\n    }\r\n\r\n    function isOwner() public view returns (bool) {\r\n        return msg.sender == owner;\r\n    }\r\n\r\n    constructor (string memory _id) public {\r\n        owner = tx.origin;\r\n        id = _id;\r\n        createdAt = now.mul(1000);\r\n    }\r\n\r\n    function transfer(string memory fromType, string memory to, string memory description) public onlyOwner {\r\n        History memory history = History(fromType, to, description, now.mul(1000));\r\n        histories.push(history);\r\n    }\r\n\r\n    function getHistoriesLength() public view returns (uint) {\r\n        return histories.length;\r\n    }\r\n\r\n    function getHistory(uint index) public view returns (string memory, string memory, string memory, uint) {\r\n        require(index >= 0 && index < histories.length, \"Index out of bounds\");\r\n        History memory history = histories[index];\r\n        return (history.from, history.to, history.description, history.transferedAt);\r\n    }\r\n}\r\n",
  "sourcePath": "D:\\Workspace\\GitHub\\THESIS\\BloodChainContracts\\contracts\\BloodPack.sol",
  "compiler": {
    "name": "solc",
    "version": "0.5.0+commit.1d4f565a.Emscripten.clang"
  },
  "schemaVersion": "3.0.11",
  "updatedAt": "2019-07-24T05:36:28.549Z",
  "devdoc": {
    "methods": {}
  },
  "userdoc": {
    "methods": {}
  }
}