{
  "contractName": "BloodChain",
  "abi": [
    {
      "constant": false,
      "inputs": [],
      "name": "kill",
      "outputs": [],
      "payable": true,
      "stateMutability": "payable",
      "type": "function"
    },
    {
      "constant": false,
      "inputs": [],
      "name": "renounceOwnership",
      "outputs": [],
      "payable": false,
      "stateMutability": "nonpayable",
      "type": "function"
    },
    {
      "constant": true,
      "inputs": [],
      "name": "owner",
      "outputs": [
        {
          "name": "",
          "type": "address"
        }
      ],
      "payable": false,
      "stateMutability": "view",
      "type": "function"
    },
    {
      "constant": true,
      "inputs": [],
      "name": "isOwner",
      "outputs": [
        {
          "name": "",
          "type": "bool"
        }
      ],
      "payable": false,
      "stateMutability": "view",
      "type": "function"
    },
    {
      "constant": false,
      "inputs": [
        {
          "name": "newOwner",
          "type": "address"
        }
      ],
      "name": "transferOwnership",
      "outputs": [],
      "payable": false,
      "stateMutability": "nonpayable",
      "type": "function"
    },
    {
      "anonymous": false,
      "inputs": [
        {
          "indexed": true,
          "name": "previousOwner",
          "type": "address"
        },
        {
          "indexed": true,
          "name": "newOwner",
          "type": "address"
        }
      ],
      "name": "OwnershipTransferred",
      "type": "event"
    },
    {
      "constant": true,
      "inputs": [],
      "name": "getInfo",
      "outputs": [
        {
          "name": "",
          "type": "string"
        }
      ],
      "payable": false,
      "stateMutability": "pure",
      "type": "function"
    },
    {
      "constant": false,
      "inputs": [],
      "name": "sendFund",
      "outputs": [],
      "payable": true,
      "stateMutability": "payable",
      "type": "function"
    },
    {
      "constant": false,
      "inputs": [
        {
          "name": "amount",
          "type": "uint256"
        }
      ],
      "name": "withdraw",
      "outputs": [],
      "payable": true,
      "stateMutability": "payable",
      "type": "function"
    },
    {
      "constant": true,
      "inputs": [
        {
          "name": "bloodPackId",
          "type": "string"
        }
      ],
      "name": "getBloodPack",
      "outputs": [
        {
          "name": "",
          "type": "string"
        },
        {
          "name": "",
          "type": "uint256"
        }
      ],
      "payable": false,
      "stateMutability": "view",
      "type": "function"
    },
    {
      "constant": true,
      "inputs": [
        {
          "name": "bloodPackId",
          "type": "string"
        }
      ],
      "name": "getBloodPackAddress",
      "outputs": [
        {
          "name": "",
          "type": "address"
        }
      ],
      "payable": false,
      "stateMutability": "view",
      "type": "function"
    },
    {
      "constant": false,
      "inputs": [
        {
          "name": "bloodPackId",
          "type": "string"
        }
      ],
      "name": "createBloodPack",
      "outputs": [],
      "payable": false,
      "stateMutability": "nonpayable",
      "type": "function"
    }
  ],
  "bytecode": "0x6080604081905260008054600160a060020a0319163317808255600160a060020a0316917f8be0079c531659141344cd1fd0a4f28419497f9722a3daafe3b4186f6b6457e0908290a3611ac1806100576000396000f3fe608060405260043610620000ba5763ffffffff7c01000000000000000000000000000000000000000000000000000000006000350416632e1a7d4d8114620000bf57806341c0e1b514620000e15780635501067c14620000eb5780635a9b0b8914620001c1578063715018a614620002515780638da5cb5b14620002695780638f32d59b1462000281578063db3d107f14620002ad578063dd0cf15d1462000367578063ec1bc7691462000371578063f2fde38b14620004ad575b600080fd5b620000df60048036036020811015620000d757600080fd5b5035620004e4565b005b620000df620005cc565b348015620000f857600080fd5b50620001a5600480360360208110156200011157600080fd5b8101906020810181356401000000008111156200012d57600080fd5b8201836020820111156200014057600080fd5b803590602001918460018302840111640100000000831117156200016357600080fd5b91908080601f0160208091040260200160405190810160405280939291908181526020018383808284376000920191909152509295506200062a945050505050565b60408051600160a060020a039092168252519081900360200190f35b348015620001ce57600080fd5b50620001d96200069f565b6040805160208082528351818301528351919283929083019185019080838360005b8381101562000215578181015183820152602001620001fb565b50505050905090810190601f168015620002435780820380516001836020036101000a031916815260200191505b509250505060405180910390f35b3480156200025e57600080fd5b50620000df620006d6565b3480156200027657600080fd5b50620001a56200077d565b3480156200028e57600080fd5b50620002996200078c565b604080519115158252519081900360200190f35b348015620002ba57600080fd5b50620000df60048036036020811015620002d357600080fd5b810190602081018135640100000000811115620002ef57600080fd5b8201836020820111156200030257600080fd5b803590602001918460018302840111640100000000831117156200032557600080fd5b91908080601f0160208091040260200160405190810160405280939291908181526020018383808284376000920191909152509295506200079d945050505050565b620000df62000917565b3480156200037e57600080fd5b506200042b600480360360208110156200039757600080fd5b810190602081018135640100000000811115620003b357600080fd5b820183602082011115620003c657600080fd5b80359060200191846001830284011164010000000083111715620003e957600080fd5b91908080601f01602080910402602001604051908101604052809392919081815260200183838082843760009201919091525092955062000969945050505050565b6040518080602001838152602001828103825284818151815260200191508051906020019080838360005b838110156200047057818101518382015260200162000456565b50505050905090810190601f1680156200049e5780820380516001836020036101000a031916815260200191505b50935050505060405180910390f35b348015620004ba57600080fd5b50620000df60048036036020811015620004d357600080fd5b5035600160a060020a031662000b49565b620004ee6200078c565b151562000534576040805160e560020a62461bcd028152602060048201819052602482015260008051602062001a76833981519152604482015290519081900360640190fd5b30318111156200058e576040805160e560020a62461bcd02815260206004820152600e60248201527f4e6f7420656e6f75676820455448000000000000000000000000000000000000604482015290519081900360640190fd5b60008054604051600160a060020a039091169183156108fc02918491818181858888f19350505050158015620005c8573d6000803e3d6000fd5b5050565b620005d66200078c565b15156200061c576040805160e560020a62461bcd028152602060048201819052602482015260008051602062001a76833981519152604482015290519081900360640190fd5b600054600160a060020a0316ff5b6000806001836040518082805190602001908083835b60208310620006615780518252601f19909201916020918201910162000640565b51815160209384036101000a6000190180199092169116179052920194855250604051938490030190922054600160a060020a031695945050505050565b60408051808201909152601481527f426c6f6f6420436861696e20436f6e7472616374000000000000000000000000602082015290565b620006e06200078c565b151562000726576040805160e560020a62461bcd028152602060048201819052602482015260008051602062001a76833981519152604482015290519081900360640190fd5b60008054604051600160a060020a03909116907f8be0079c531659141344cd1fd0a4f28419497f9722a3daafe3b4186f6b6457e0908390a36000805473ffffffffffffffffffffffffffffffffffffffff19169055565b600054600160a060020a031690565b600054600160a060020a0316331490565b620007a76200078c565b1515620007ed576040805160e560020a62461bcd028152602060048201819052602482015260008051602062001a76833981519152604482015290519081900360640190fd5b600081620007fa62000c96565b60208082528251818301528251829160408301919085019080838360005b838110156200083257818101518382015260200162000818565b50505050905090810190601f168015620008605780820380516001836020036101000a031916815260200191505b5092505050604051809103906000f08015801562000882573d6000803e3d6000fd5b509050806001836040518082805190602001908083835b60208310620008ba5780518252601f19909201916020918201910162000899565b51815160209384036101000a60001901801990921691161790529201948552506040519384900301909220805473ffffffffffffffffffffffffffffffffffffffff1916600160a060020a03949094169390931790925550505050565b620009216200078c565b151562000967576040805160e560020a62461bcd028152602060048201819052602482015260008051602062001a76833981519152604482015290519081900360640190fd5b565b60606000806001846040518082805190602001908083835b60208310620009a25780518252601f19909201916020918201910162000981565b51815160209384036101000a600019018019909216911617905292019485525060408051948590039091018420547faf640d0f0000000000000000000000000000000000000000000000000000000085529051600160a060020a039091169450849363af640d0f93506004808201935060009291829003018186803b15801562000a2b57600080fd5b505afa15801562000a40573d6000803e3d6000fd5b505050506040513d6000823e601f3d908101601f19168201604052602081101562000a6a57600080fd5b81019080805164010000000081111562000a8357600080fd5b8201602081018481111562000a9757600080fd5b815164010000000081118282018710171562000ab257600080fd5b505092919050505081600160a060020a031663cf09e0d06040518163ffffffff167c010000000000000000000000000000000000000000000000000000000002815260040160206040518083038186803b15801562000b1057600080fd5b505afa15801562000b25573d6000803e3d6000fd5b505050506040513d602081101562000b3c57600080fd5b5051909350915050915091565b62000b536200078c565b151562000b99576040805160e560020a62461bcd028152602060048201819052602482015260008051602062001a76833981519152604482015290519081900360640190fd5b62000ba48162000ba7565b50565b600160a060020a038116151562000c2e576040805160e560020a62461bcd02815260206004820152602660248201527f4f776e61626c653a206e6577206f776e657220697320746865207a65726f206160448201527f6464726573730000000000000000000000000000000000000000000000000000606482015290519081900360840190fd5b60008054604051600160a060020a03808516939216917f8be0079c531659141344cd1fd0a4f28419497f9722a3daafe3b4186f6b6457e091a36000805473ffffffffffffffffffffffffffffffffffffffff1916600160a060020a0392909216919091179055565b604051610dce8062000ca88339019056fe60806040523480156200001157600080fd5b5060405162000dce38038062000dce833981018060405260208110156200003757600080fd5b8101908080516401000000008111156200005057600080fd5b820160208101848111156200006457600080fd5b81516401000000008111828201871017156200007f57600080fd5b505060008054600160a060020a031916321790558051909350620000ad925060019150602084019062000194565b50620000ca426103e8640100000000620009d5620000d482021704565b6002555062000239565b6000821515620000e7575060006200018e565b828202828482811515620000f757fe5b04146200018b57604080517f08c379a000000000000000000000000000000000000000000000000000000000815260206004820152602160248201527f536166654d6174683a206d756c7469706c69636174696f6e206f766572666c6f60448201527f7700000000000000000000000000000000000000000000000000000000000000606482015290519081900360840190fd5b90505b92915050565b828054600181600116156101000203166002900490600052602060002090601f016020900481019282601f10620001d757805160ff191683800117855562000207565b8280016001018555821562000207579182015b8281111562000207578251825591602001919060010190620001ea565b506200021592915062000219565b5090565b6200023691905b8082111562000215576000815560010162000220565b90565b610b8580620002496000396000f3fe6080604052600436106100775763ffffffff7c01000000000000000000000000000000000000000000000000000000006000350416632c544480811461007c5780638f32d59b146100a3578063af640d0f146100cc578063c8691b2a14610156578063cf09e0d0146102e0578063fef9a21e146102f5575b600080fd5b34801561008857600080fd5b506100916104c2565b60408051918252519081900360200190f35b3480156100af57600080fd5b506100b86104c9565b604080519115158252519081900360200190f35b3480156100d857600080fd5b506100e16104e7565b6040805160208082528351818301528351919283929083019185019080838360005b8381101561011b578181015183820152602001610103565b50505050905090810190601f1680156101485780820380516001836020036101000a031916815260200191505b509250505060405180910390f35b34801561016257600080fd5b506101806004803603602081101561017957600080fd5b5035610574565b6040518086600281111561019057fe5b60ff168152602001806020018060200180602001858152602001848103845288818151815260200191508051906020019080838360005b838110156101df5781810151838201526020016101c7565b50505050905090810190601f16801561020c5780820380516001836020036101000a031916815260200191505b50848103835287518152875160209182019189019080838360005b8381101561023f578181015183820152602001610227565b50505050905090810190601f16801561026c5780820380516001836020036101000a031916815260200191505b50848103825286518152865160209182019188019080838360005b8381101561029f578181015183820152602001610287565b50505050905090810190601f1680156102cc5780820380516001836020036101000a031916815260200191505b509850505050505050505060405180910390f35b3480156102ec57600080fd5b50610091610849565b34801561030157600080fd5b506104c06004803603608081101561031857600080fd5b60ff823516919081019060408101602082013564010000000081111561033d57600080fd5b82018360208201111561034f57600080fd5b8035906020019184600183028401116401000000008311171561037157600080fd5b91908080601f01602080910402602001604051908101604052809392919081815260200183838082843760009201919091525092959493602081019350359150506401000000008111156103c457600080fd5b8201836020820111156103d657600080fd5b803590602001918460018302840111640100000000831117156103f857600080fd5b91908080601f016020809104026020016040519081016040528093929190818152602001838380828437600092019190915250929594936020810193503591505064010000000081111561044b57600080fd5b82018360208201111561045d57600080fd5b8035906020019184600183028401116401000000008311171561047f57600080fd5b91908080601f01602080910402602001604051908101604052809392919081815260200183838082843760009201919091525092955061084f945050505050565b005b6003545b90565b60005473ffffffffffffffffffffffffffffffffffffffff16331490565b60018054604080516020600284861615610100026000190190941693909304601f8101849004840282018401909252818152929183018282801561056c5780601f106105415761010080835404028352916020019161056c565b820191906000526020600020905b81548152906001019060200180831161054f57829003601f168201915b505050505081565b60006060806060600080861015801561058e575060035486105b15156105fb57604080517f08c379a000000000000000000000000000000000000000000000000000000000815260206004820152601360248201527f496e646578206f7574206f6620626f756e647300000000000000000000000000604482015290519081900360640190fd5b610603610a91565b600380548890811061061157fe5b600091825260209091206040805160a081019091526005909202018054829060ff16600281111561063e57fe5b600281111561064957fe5b8152602001600182018054600181600116156101000203166002900480601f0160208091040260200160405190810160405280929190818152602001828054600181600116156101000203166002900480156106e65780601f106106bb576101008083540402835291602001916106e6565b820191906000526020600020905b8154815290600101906020018083116106c957829003601f168201915b5050509183525050600282810180546040805160206001841615610100026000190190931694909404601f810183900483028501830190915280845293810193908301828280156107785780601f1061074d57610100808354040283529160200191610778565b820191906000526020600020905b81548152906001019060200180831161075b57829003601f168201915b505050918352505060038201805460408051602060026001851615610100026000190190941693909304601f810184900484028201840190925281815293820193929183018282801561080c5780601f106107e15761010080835404028352916020019161080c565b820191906000526020600020905b8154815290600101906020018083116107ef57829003601f168201915b50505091835250506004919091015460209182015281519082015160408301516060840151608090940151929b919a509850919650945092505050565b60025481565b6108576104c9565b15156108c457604080517f08c379a000000000000000000000000000000000000000000000000000000000815260206004820152601760248201527f43616c6c6572206973206e6f7420746865206f776e6572000000000000000000604482015290519081900360640190fd5b6108cc610a91565b60a0604051908101604052808660028111156108e457fe5b81526020018581526020018481526020018381526020016109106103e8426109d590919063ffffffff16565b9052600380546001818101808455600093909352835160059092027fc2575a0e9e593c00f959f8c92f12db2869c3395a3b0502d05e2516446f71f85b018054949550929385939291839160ff19169083600281111561096b57fe5b021790555060208281015180516109889260018501920190610ac1565b50604082015180516109a4916002840191602090910190610ac1565b50606082015180516109c0916003840191602090910190610ac1565b50608082015181600401555050505050505050565b60008215156109e657506000610a8b565b8282028284828115156109f557fe5b0414610a8857604080517f08c379a000000000000000000000000000000000000000000000000000000000815260206004820152602160248201527f536166654d6174683a206d756c7469706c69636174696f6e206f766572666c6f60448201527f7700000000000000000000000000000000000000000000000000000000000000606482015290519081900360840190fd5b90505b92915050565b6040805160a081019091528060008152602001606081526020016060815260200160608152602001600081525090565b828054600181600116156101000203166002900490600052602060002090601f016020900481019282601f10610b0257805160ff1916838001178555610b2f565b82800160010185558215610b2f579182015b82811115610b2f578251825591602001919060010190610b14565b50610b3b929150610b3f565b5090565b6104c691905b80821115610b3b5760008155600101610b4556fea165627a7a7230582058811726522cfd2a864c211665091b90158425ff509ae4248df74c186208689b00294f776e61626c653a2063616c6c6572206973206e6f7420746865206f776e6572a165627a7a72305820056abb64950966f29a332a86629ad30e191de7957b8d6d80cb941ac72e89e0030029",
  "source": "pragma solidity ^0.5.0;\r\n\r\nimport \"./openzeppelin/lifecycle/Killable.sol\";\r\nimport \"./openzeppelin/math/SafeMath.sol\";\r\nimport \"./BloodPack.sol\";\r\n\r\ncontract BloodChain is Killable {\r\n    using SafeMath for uint256;\r\n\r\n    string constant CONTRACT_INFO = \"Blood Chain Contract\";\r\n\r\n    mapping(string => BloodPack) private bloodPacks;\r\n\r\n    function getInfo() public pure returns (string memory) {\r\n        return CONTRACT_INFO;\r\n    }\r\n\r\n    function sendFund() public payable onlyOwner { }\r\n\r\n    function withdraw(uint amount) public payable onlyOwner {\r\n        require (amount <= address(this).balance, \"Not enough ETH\");\r\n        _owner.transfer(amount);\r\n    }\r\n\r\n    function getBloodPack(string memory bloodPackId) public view returns (string memory, uint) {\r\n        BloodPack bloodPack = bloodPacks[bloodPackId];\r\n        return (bloodPack.id(), bloodPack.createdAt());\r\n    }\r\n\r\n    function getBloodPackAddress(string memory bloodPackId) public view returns (address) {\r\n        BloodPack bloodPack = bloodPacks[bloodPackId];\r\n        return address(bloodPack);\r\n    }\r\n\r\n    function createBloodPack(string memory bloodPackId) public onlyOwner {\r\n        BloodPack bloodPack = new BloodPack(bloodPackId);\r\n        bloodPacks[bloodPackId] = bloodPack;\r\n    }\r\n}\r\n",
  "sourcePath": "D:/Workspace/GitHub/THESIS/BloodChainContracts/contracts/BloodChain.sol",
  "compiler": {
    "name": "solc",
    "version": "0.5.0+commit.1d4f565a.Emscripten.clang"
  },
  "schemaVersion": "3.0.11",
  "updatedAt": "2019-07-25T03:38:20.860Z",
  "devdoc": {
    "methods": {
      "isOwner()": {
        "details": "Returns true if the caller is the current owner.\r"
      },
      "owner()": {
        "details": "Returns the address of the current owner.\r"
      },
      "renounceOwnership()": {
        "details": "Leaves the contract without owner. It will not be possible to call\r `onlyOwner` functions anymore. Can only be called by the current owner.\r      * NOTE: Renouncing ownership will leave the contract without an owner,\r thereby removing any functionality that is only available to the owner.\r"
      },
      "transferOwnership(address)": {
        "details": "Transfers ownership of the contract to a new account (`newOwner`).\r Can only be called by the current owner.\r"
      }
    }
  },
  "userdoc": {
    "methods": {}
  }
}