{
  "contractName": "BloodPack",
  "abi": [
    {
      "constant": true,
      "inputs": [],
      "name": "id",
      "outputs": [
        {
          "name": "",
          "type": "string"
        }
      ],
      "payable": false,
      "stateMutability": "view",
      "type": "function"
    },
    {
      "constant": true,
      "inputs": [],
      "name": "createdAt",
      "outputs": [
        {
          "name": "",
          "type": "uint256"
        }
      ],
      "payable": false,
      "stateMutability": "view",
      "type": "function"
    },
    {
      "inputs": [
        {
          "name": "_id",
          "type": "string"
        }
      ],
      "payable": false,
      "stateMutability": "nonpayable",
      "type": "constructor"
    },
    {
      "constant": true,
      "inputs": [],
      "name": "isOwner",
      "outputs": [
        {
          "name": "",
          "type": "bool"
        }
      ],
      "payable": false,
      "stateMutability": "view",
      "type": "function"
    },
    {
      "constant": false,
      "inputs": [
        {
          "name": "fromId",
          "type": "string"
        },
        {
          "name": "fromName",
          "type": "string"
        },
        {
          "name": "toId",
          "type": "string"
        },
        {
          "name": "toName",
          "type": "string"
        },
        {
          "name": "description",
          "type": "string"
        }
      ],
      "name": "transfer",
      "outputs": [],
      "payable": false,
      "stateMutability": "nonpayable",
      "type": "function"
    },
    {
      "constant": true,
      "inputs": [],
      "name": "getHistoriesLength",
      "outputs": [
        {
          "name": "",
          "type": "uint256"
        }
      ],
      "payable": false,
      "stateMutability": "view",
      "type": "function"
    },
    {
      "constant": true,
      "inputs": [
        {
          "name": "index",
          "type": "uint256"
        }
      ],
      "name": "getHistory",
      "outputs": [
        {
          "name": "",
          "type": "string"
        },
        {
          "name": "",
          "type": "string"
        },
        {
          "name": "",
          "type": "string"
        },
        {
          "name": "",
          "type": "string"
        },
        {
          "name": "",
          "type": "string"
        }
      ],
      "payable": false,
      "stateMutability": "view",
      "type": "function"
    }
  ],
  "bytecode": "0x60806040523480156200001157600080fd5b506040516200106838038062001068833981018060405260208110156200003757600080fd5b8101908080516401000000008111156200005057600080fd5b820160208101848111156200006457600080fd5b81516401000000008111828201871017156200007f57600080fd5b505060008054600160a060020a031916321790558051909350620000ad925060019150602084019062000194565b50620000ca426103e864010000000062000d37620000d482021704565b6002555062000239565b6000821515620000e7575060006200018e565b828202828482811515620000f757fe5b04146200018b57604080517f08c379a000000000000000000000000000000000000000000000000000000000815260206004820152602160248201527f536166654d6174683a206d756c7469706c69636174696f6e206f766572666c6f60448201527f7700000000000000000000000000000000000000000000000000000000000000606482015290519081900360840190fd5b90505b92915050565b828054600181600116156101000203166002900490600052602060002090601f016020900481019282601f10620001d757805160ff191683800117855562000207565b8280016001018555821562000207579182015b8281111562000207578251825591602001919060010190620001ea565b506200021592915062000219565b5090565b6200023691905b8082111562000215576000815560010162000220565b90565b610e1f80620002496000396000f3fe6080604052600436106100775763ffffffff7c01000000000000000000000000000000000000000000000000000000006000350416632c544480811461007c5780638f32d59b146100a357806394f8275c146100cc578063af640d0f1461039d578063c8691b2a14610427578063cf09e0d014610661575b600080fd5b34801561008857600080fd5b50610091610676565b60408051918252519081900360200190f35b3480156100af57600080fd5b506100b861067d565b604080519115158252519081900360200190f35b3480156100d857600080fd5b5061039b600480360360a08110156100ef57600080fd5b81019060208101813564010000000081111561010a57600080fd5b82018360208201111561011c57600080fd5b8035906020019184600183028401116401000000008311171561013e57600080fd5b91908080601f016020809104026020016040519081016040528093929190818152602001838380828437600092019190915250929594936020810193503591505064010000000081111561019157600080fd5b8201836020820111156101a357600080fd5b803590602001918460018302840111640100000000831117156101c557600080fd5b91908080601f016020809104026020016040519081016040528093929190818152602001838380828437600092019190915250929594936020810193503591505064010000000081111561021857600080fd5b82018360208201111561022a57600080fd5b8035906020019184600183028401116401000000008311171561024c57600080fd5b91908080601f016020809104026020016040519081016040528093929190818152602001838380828437600092019190915250929594936020810193503591505064010000000081111561029f57600080fd5b8201836020820111156102b157600080fd5b803590602001918460018302840111640100000000831117156102d357600080fd5b91908080601f016020809104026020016040519081016040528093929190818152602001838380828437600092019190915250929594936020810193503591505064010000000081111561032657600080fd5b82018360208201111561033857600080fd5b8035906020019184600183028401116401000000008311171561035a57600080fd5b91908080601f01602080910402602001604051908101604052809392919081815260200183838082843760009201919091525092955061069b945050505050565b005b3480156103a957600080fd5b506103b261080c565b6040805160208082528351818301528351919283929083019185019080838360005b838110156103ec5781810151838201526020016103d4565b50505050905090810190601f1680156104195780820380516001836020036101000a031916815260200191505b509250505060405180910390f35b34801561043357600080fd5b506104516004803603602081101561044a57600080fd5b5035610899565b60405180806020018060200180602001806020018060200186810386528b818151815260200191508051906020019080838360005b8381101561049e578181015183820152602001610486565b50505050905090810190601f1680156104cb5780820380516001836020036101000a031916815260200191505b5086810385528a5181528a516020918201918c019080838360005b838110156104fe5781810151838201526020016104e6565b50505050905090810190601f16801561052b5780820380516001836020036101000a031916815260200191505b5086810384528951815289516020918201918b019080838360005b8381101561055e578181015183820152602001610546565b50505050905090810190601f16801561058b5780820380516001836020036101000a031916815260200191505b5086810383528851815288516020918201918a019080838360005b838110156105be5781810151838201526020016105a6565b50505050905090810190601f1680156105eb5780820380516001836020036101000a031916815260200191505b50868103825287518152875160209182019189019080838360005b8381101561061e578181015183820152602001610606565b50505050905090810190601f16801561064b5780820380516001836020036101000a031916815260200191505b509a505050505050505050505060405180910390f35b34801561066d57600080fd5b50610091610c69565b6003545b90565b60005473ffffffffffffffffffffffffffffffffffffffff16331490565b6106a361067d565b151561071057604080517f08c379a000000000000000000000000000000000000000000000000000000000815260206004820152601760248201527f43616c6c6572206973206e6f7420746865206f776e6572000000000000000000604482015290519081900360640190fd5b610718610c6f565b506040805160a0810182528681526020808201879052918101859052606081018490526080810183905260038054600181018083556000929092528251805193949293859360059093027fc2575a0e9e593c00f959f8c92f12db2869c3395a3b0502d05e2516446f71f85b0192610793928492910190610c9f565b5060208281015180516107ac9260018501920190610c9f565b50604082015180516107c8916002840191602090910190610c9f565b50606082015180516107e4916003840191602090910190610c9f565b5060808201518051610800916004840191602090910190610c9f565b50505050505050505050565b60018054604080516020600284861615610100026000190190941693909304601f810184900484028201840190925281815292918301828280156108915780601f1061086657610100808354040283529160200191610891565b820191906000526020600020905b81548152906001019060200180831161087457829003601f168201915b505050505081565b6060806060806060600086101580156108b3575060035486105b151561092057604080517f08c379a000000000000000000000000000000000000000000000000000000000815260206004820152601360248201527f496e646578206f7574206f6620626f756e647300000000000000000000000000604482015290519081900360640190fd5b610928610c6f565b600380548890811061093657fe5b600091825260209182902060408051600593909302909101805460026001821615610100026000190190911604601f8101859004909402830160c090810190925260a08301848152929390928492909184918401828280156109d95780601f106109ae576101008083540402835291602001916109d9565b820191906000526020600020905b8154815290600101906020018083116109bc57829003601f168201915b50505050508152602001600182018054600181600116156101000203166002900480601f016020809104026020016040519081016040528092919081815260200182805460018160011615610100020316600290048015610a7b5780601f10610a5057610100808354040283529160200191610a7b565b820191906000526020600020905b815481529060010190602001808311610a5e57829003601f168201915b5050509183525050600282810180546040805160206001841615610100026000190190931694909404601f81018390048302850183019091528084529381019390830182828015610b0d5780601f10610ae257610100808354040283529160200191610b0d565b820191906000526020600020905b815481529060010190602001808311610af057829003601f168201915b505050918352505060038201805460408051602060026001851615610100026000190190941693909304601f8101849004840282018401909252818152938201939291830182828015610ba15780601f10610b7657610100808354040283529160200191610ba1565b820191906000526020600020905b815481529060010190602001808311610b8457829003601f168201915b505050918352505060048201805460408051602060026001851615610100026000190190941693909304601f8101849004840282018401909252818152938201939291830182828015610c355780601f10610c0a57610100808354040283529160200191610c35565b820191906000526020600020905b815481529060010190602001808311610c1857829003601f168201915b5050509190925250508151602083015160408401516060850151608090950151929c919b5099509297509550909350505050565b60025481565b60a06040519081016040528060608152602001606081526020016060815260200160608152602001606081525090565b828054600181600116156101000203166002900490600052602060002090601f016020900481019282601f10610ce057805160ff1916838001178555610d0d565b82800160010185558215610d0d579182015b82811115610d0d578251825591602001919060010190610cf2565b50610d19929150610d1d565b5090565b61067a91905b80821115610d195760008155600101610d23565b6000821515610d4857506000610ded565b828202828482811515610d5757fe5b0414610dea57604080517f08c379a000000000000000000000000000000000000000000000000000000000815260206004820152602160248201527f536166654d6174683a206d756c7469706c69636174696f6e206f766572666c6f60448201527f7700000000000000000000000000000000000000000000000000000000000000606482015290519081900360840190fd5b90505b9291505056fea165627a7a72305820ce46121297fc147cf7067587acc470a61d93378c1caf43cb7de554d1c3b170190029",
  "source": "pragma solidity ^0.5.0;\r\n\r\nimport \"./openzeppelin/ownership/Ownable.sol\";\r\nimport \"./openzeppelin/math/SafeMath.sol\";\r\n\r\ncontract BloodPack {\r\n    using SafeMath for uint256;\r\n\r\n    struct History {\r\n        string fromId;\r\n        string fromName;\r\n        string toId;\r\n        string toName;\r\n        string description;\r\n    }\r\n\r\n    address owner;\r\n    string public id;\r\n    uint public createdAt;\r\n\r\n    History[] histories;\r\n\r\n    modifier onlyOwner() {\r\n        require(isOwner(), \"Caller is not the owner\");\r\n        _;\r\n    }\r\n\r\n    function isOwner() public view returns (bool) {\r\n        return msg.sender == owner;\r\n    }\r\n\r\n    constructor (string memory _id) public {\r\n        owner = tx.origin;\r\n        id = _id;\r\n        createdAt = now.mul(1000);\r\n    }\r\n\r\n    function transfer(string memory fromId, string memory fromName,\r\n        string memory toId, string memory toName,\r\n        string memory description) public onlyOwner {\r\n\r\n        History memory history = History(fromId, fromName, toId, toName, description);\r\n        histories.push(history);\r\n    }\r\n\r\n    function getHistoriesLength() public view returns (uint) {\r\n        return histories.length;\r\n    }\r\n\r\n    function getHistory(uint index) public view returns (string memory, string memory, string memory, string memory, string memory) {\r\n        require(index >= 0 && index < histories.length, \"Index out of bounds\");\r\n\r\n        History memory history = histories[index];\r\n        return (history.fromId, history.fromName, history.toId, history.toName, history.description);\r\n    }\r\n}\r\n",
  "sourcePath": "D:\\Workspace\\GitHub\\THESIS\\BloodChainContracts\\contracts\\BloodPack.sol",
  "compiler": {
    "name": "solc",
    "version": "0.5.0+commit.1d4f565a.Emscripten.clang"
  },
  "schemaVersion": "3.0.11",
  "updatedAt": "2019-07-24T03:51:41.962Z",
  "devdoc": {
    "methods": {}
  },
  "userdoc": {
    "methods": {}
  }
}