{
  "contractName": "BloodPack",
  "abi": [
    {
      "constant": true,
      "inputs": [],
      "name": "id",
      "outputs": [
        {
          "name": "",
          "type": "string"
        }
      ],
      "payable": false,
      "stateMutability": "view",
      "type": "function"
    },
    {
      "constant": true,
      "inputs": [],
      "name": "createdAt",
      "outputs": [
        {
          "name": "",
          "type": "uint256"
        }
      ],
      "payable": false,
      "stateMutability": "view",
      "type": "function"
    },
    {
      "inputs": [
        {
          "name": "_id",
          "type": "string"
        }
      ],
      "payable": false,
      "stateMutability": "nonpayable",
      "type": "constructor"
    },
    {
      "constant": true,
      "inputs": [],
      "name": "isOwner",
      "outputs": [
        {
          "name": "",
          "type": "bool"
        }
      ],
      "payable": false,
      "stateMutability": "view",
      "type": "function"
    },
    {
      "constant": false,
      "inputs": [
        {
          "name": "transferType",
          "type": "uint8"
        },
        {
          "name": "from",
          "type": "string"
        },
        {
          "name": "to",
          "type": "string"
        },
        {
          "name": "description",
          "type": "string"
        }
      ],
      "name": "transfer",
      "outputs": [],
      "payable": false,
      "stateMutability": "nonpayable",
      "type": "function"
    },
    {
      "constant": true,
      "inputs": [],
      "name": "getHistoriesLength",
      "outputs": [
        {
          "name": "",
          "type": "uint256"
        }
      ],
      "payable": false,
      "stateMutability": "view",
      "type": "function"
    },
    {
      "constant": true,
      "inputs": [
        {
          "name": "index",
          "type": "uint256"
        }
      ],
      "name": "getHistory",
      "outputs": [
        {
          "name": "",
          "type": "uint8"
        },
        {
          "name": "",
          "type": "string"
        },
        {
          "name": "",
          "type": "string"
        },
        {
          "name": "",
          "type": "string"
        },
        {
          "name": "",
          "type": "uint256"
        }
      ],
      "payable": false,
      "stateMutability": "view",
      "type": "function"
    }
  ],
  "bytecode": "0x60806040523480156200001157600080fd5b5060405162000dce38038062000dce833981018060405260208110156200003757600080fd5b8101908080516401000000008111156200005057600080fd5b820160208101848111156200006457600080fd5b81516401000000008111828201871017156200007f57600080fd5b505060008054600160a060020a031916321790558051909350620000ad925060019150602084019062000194565b50620000ca426103e8640100000000620009d5620000d482021704565b6002555062000239565b6000821515620000e7575060006200018e565b828202828482811515620000f757fe5b04146200018b57604080517f08c379a000000000000000000000000000000000000000000000000000000000815260206004820152602160248201527f536166654d6174683a206d756c7469706c69636174696f6e206f766572666c6f60448201527f7700000000000000000000000000000000000000000000000000000000000000606482015290519081900360840190fd5b90505b92915050565b828054600181600116156101000203166002900490600052602060002090601f016020900481019282601f10620001d757805160ff191683800117855562000207565b8280016001018555821562000207579182015b8281111562000207578251825591602001919060010190620001ea565b506200021592915062000219565b5090565b6200023691905b8082111562000215576000815560010162000220565b90565b610b8580620002496000396000f3fe6080604052600436106100775763ffffffff7c01000000000000000000000000000000000000000000000000000000006000350416632c544480811461007c5780638f32d59b146100a3578063af640d0f146100cc578063c8691b2a14610156578063cf09e0d0146102e0578063fef9a21e146102f5575b600080fd5b34801561008857600080fd5b506100916104c2565b60408051918252519081900360200190f35b3480156100af57600080fd5b506100b86104c9565b604080519115158252519081900360200190f35b3480156100d857600080fd5b506100e16104e7565b6040805160208082528351818301528351919283929083019185019080838360005b8381101561011b578181015183820152602001610103565b50505050905090810190601f1680156101485780820380516001836020036101000a031916815260200191505b509250505060405180910390f35b34801561016257600080fd5b506101806004803603602081101561017957600080fd5b5035610574565b6040518086600281111561019057fe5b60ff168152602001806020018060200180602001858152602001848103845288818151815260200191508051906020019080838360005b838110156101df5781810151838201526020016101c7565b50505050905090810190601f16801561020c5780820380516001836020036101000a031916815260200191505b50848103835287518152875160209182019189019080838360005b8381101561023f578181015183820152602001610227565b50505050905090810190601f16801561026c5780820380516001836020036101000a031916815260200191505b50848103825286518152865160209182019188019080838360005b8381101561029f578181015183820152602001610287565b50505050905090810190601f1680156102cc5780820380516001836020036101000a031916815260200191505b509850505050505050505060405180910390f35b3480156102ec57600080fd5b50610091610849565b34801561030157600080fd5b506104c06004803603608081101561031857600080fd5b60ff823516919081019060408101602082013564010000000081111561033d57600080fd5b82018360208201111561034f57600080fd5b8035906020019184600183028401116401000000008311171561037157600080fd5b91908080601f01602080910402602001604051908101604052809392919081815260200183838082843760009201919091525092959493602081019350359150506401000000008111156103c457600080fd5b8201836020820111156103d657600080fd5b803590602001918460018302840111640100000000831117156103f857600080fd5b91908080601f016020809104026020016040519081016040528093929190818152602001838380828437600092019190915250929594936020810193503591505064010000000081111561044b57600080fd5b82018360208201111561045d57600080fd5b8035906020019184600183028401116401000000008311171561047f57600080fd5b91908080601f01602080910402602001604051908101604052809392919081815260200183838082843760009201919091525092955061084f945050505050565b005b6003545b90565b60005473ffffffffffffffffffffffffffffffffffffffff16331490565b60018054604080516020600284861615610100026000190190941693909304601f8101849004840282018401909252818152929183018282801561056c5780601f106105415761010080835404028352916020019161056c565b820191906000526020600020905b81548152906001019060200180831161054f57829003601f168201915b505050505081565b60006060806060600080861015801561058e575060035486105b15156105fb57604080517f08c379a000000000000000000000000000000000000000000000000000000000815260206004820152601360248201527f496e646578206f7574206f6620626f756e647300000000000000000000000000604482015290519081900360640190fd5b610603610a91565b600380548890811061061157fe5b600091825260209091206040805160a081019091526005909202018054829060ff16600281111561063e57fe5b600281111561064957fe5b8152602001600182018054600181600116156101000203166002900480601f0160208091040260200160405190810160405280929190818152602001828054600181600116156101000203166002900480156106e65780601f106106bb576101008083540402835291602001916106e6565b820191906000526020600020905b8154815290600101906020018083116106c957829003601f168201915b5050509183525050600282810180546040805160206001841615610100026000190190931694909404601f810183900483028501830190915280845293810193908301828280156107785780601f1061074d57610100808354040283529160200191610778565b820191906000526020600020905b81548152906001019060200180831161075b57829003601f168201915b505050918352505060038201805460408051602060026001851615610100026000190190941693909304601f810184900484028201840190925281815293820193929183018282801561080c5780601f106107e15761010080835404028352916020019161080c565b820191906000526020600020905b8154815290600101906020018083116107ef57829003601f168201915b50505091835250506004919091015460209182015281519082015160408301516060840151608090940151929b919a509850919650945092505050565b60025481565b6108576104c9565b15156108c457604080517f08c379a000000000000000000000000000000000000000000000000000000000815260206004820152601760248201527f43616c6c6572206973206e6f7420746865206f776e6572000000000000000000604482015290519081900360640190fd5b6108cc610a91565b60a0604051908101604052808660028111156108e457fe5b81526020018581526020018481526020018381526020016109106103e8426109d590919063ffffffff16565b9052600380546001818101808455600093909352835160059092027fc2575a0e9e593c00f959f8c92f12db2869c3395a3b0502d05e2516446f71f85b018054949550929385939291839160ff19169083600281111561096b57fe5b021790555060208281015180516109889260018501920190610ac1565b50604082015180516109a4916002840191602090910190610ac1565b50606082015180516109c0916003840191602090910190610ac1565b50608082015181600401555050505050505050565b60008215156109e657506000610a8b565b8282028284828115156109f557fe5b0414610a8857604080517f08c379a000000000000000000000000000000000000000000000000000000000815260206004820152602160248201527f536166654d6174683a206d756c7469706c69636174696f6e206f766572666c6f60448201527f7700000000000000000000000000000000000000000000000000000000000000606482015290519081900360840190fd5b90505b92915050565b6040805160a081019091528060008152602001606081526020016060815260200160608152602001600081525090565b828054600181600116156101000203166002900490600052602060002090601f016020900481019282601f10610b0257805160ff1916838001178555610b2f565b82800160010185558215610b2f579182015b82811115610b2f578251825591602001919060010190610b14565b50610b3b929150610b3f565b5090565b6104c691905b80821115610b3b5760008155600101610b4556fea165627a7a7230582058811726522cfd2a864c211665091b90158425ff509ae4248df74c186208689b0029",
  "source": "pragma solidity ^0.5.0;\r\n\r\nimport \"./openzeppelin/ownership/Ownable.sol\";\r\nimport \"./openzeppelin/math/SafeMath.sol\";\r\n\r\ncontract BloodPack {\r\n    using SafeMath for uint256;\r\n\r\n    enum TransferType {\r\n        BloodPack,\r\n        BloodProduct,\r\n        Consume\r\n    }\r\n\r\n    struct History {\r\n        TransferType transferType;\r\n        string from;\r\n        string to;\r\n        string description;\r\n        uint transferedAt;\r\n    }\r\n\r\n    address owner;\r\n    string public id;\r\n    uint public createdAt;\r\n\r\n    History[] histories;\r\n\r\n    modifier onlyOwner() {\r\n        require(isOwner(), \"Caller is not the owner\");\r\n        _;\r\n    }\r\n\r\n    function isOwner() public view returns (bool) {\r\n        return msg.sender == owner;\r\n    }\r\n\r\n    constructor (string memory _id) public {\r\n        owner = tx.origin;\r\n        id = _id;\r\n        createdAt = now.mul(1000);\r\n    }\r\n\r\n    function transfer(\r\n        TransferType transferType,\r\n        string memory from, string memory to,\r\n        string memory description\r\n    ) public onlyOwner {\r\n        History memory history = History(transferType, from, to, description, now.mul(1000));\r\n        histories.push(history);\r\n    }\r\n\r\n    function getHistoriesLength() public view returns (uint) {\r\n        return histories.length;\r\n    }\r\n\r\n    function getHistory(uint index) public view returns (TransferType, string memory, string memory, string memory, uint) {\r\n        require(index >= 0 && index < histories.length, \"Index out of bounds\");\r\n        History memory history = histories[index];\r\n        return (\r\n            history.transferType,\r\n            history.from, history.to,\r\n            history.description, history.transferedAt\r\n        );\r\n    }\r\n}\r\n",
  "sourcePath": "D:\\Workspace\\GitHub\\THESIS\\BloodChainContracts\\contracts\\BloodPack.sol",
  "compiler": {
    "name": "solc",
    "version": "0.5.0+commit.1d4f565a.Emscripten.clang"
  },
  "schemaVersion": "3.0.11",
  "updatedAt": "2019-07-25T03:38:19.994Z",
  "devdoc": {
    "methods": {}
  },
  "userdoc": {
    "methods": {}
  }
}