{
  "contractName": "UserInfo",
  "abi": [
    {
      "constant": true,
      "inputs": [],
      "name": "point",
      "outputs": [
        {
          "name": "",
          "type": "uint256"
        }
      ],
      "payable": false,
      "stateMutability": "view",
      "type": "function"
    },
    {
      "constant": true,
      "inputs": [],
      "name": "id",
      "outputs": [
        {
          "name": "",
          "type": "string"
        }
      ],
      "payable": false,
      "stateMutability": "view",
      "type": "function"
    },
    {
      "constant": true,
      "inputs": [],
      "name": "createdAt",
      "outputs": [
        {
          "name": "",
          "type": "uint256"
        }
      ],
      "payable": false,
      "stateMutability": "view",
      "type": "function"
    },
    {
      "inputs": [
        {
          "name": "_id",
          "type": "string"
        }
      ],
      "payable": false,
      "stateMutability": "nonpayable",
      "type": "constructor"
    },
    {
      "constant": true,
      "inputs": [],
      "name": "isOwner",
      "outputs": [
        {
          "name": "",
          "type": "bool"
        }
      ],
      "payable": false,
      "stateMutability": "view",
      "type": "function"
    },
    {
      "constant": false,
      "inputs": [
        {
          "name": "updatePointType",
          "type": "uint8"
        },
        {
          "name": "amount",
          "type": "uint256"
        },
        {
          "name": "description",
          "type": "string"
        }
      ],
      "name": "updatePoint",
      "outputs": [],
      "payable": false,
      "stateMutability": "nonpayable",
      "type": "function"
    },
    {
      "constant": true,
      "inputs": [],
      "name": "getHistoriesLength",
      "outputs": [
        {
          "name": "",
          "type": "uint256"
        }
      ],
      "payable": false,
      "stateMutability": "view",
      "type": "function"
    },
    {
      "constant": true,
      "inputs": [
        {
          "name": "index",
          "type": "uint256"
        }
      ],
      "name": "getHistory",
      "outputs": [
        {
          "name": "",
          "type": "uint8"
        },
        {
          "name": "",
          "type": "uint256"
        },
        {
          "name": "",
          "type": "string"
        },
        {
          "name": "",
          "type": "uint256"
        }
      ],
      "payable": false,
      "stateMutability": "view",
      "type": "function"
    }
  ],
  "bytecode": "0x608060405234801561001057600080fd5b50604051610b7c380380610b7c8339810180604052602081101561003357600080fd5b81019080805164010000000081111561004b57600080fd5b8201602081018481111561005e57600080fd5b815164010000000081118282018710171561007857600080fd5b505060008054600160a060020a0319163217905580519093506100a49250600191506020840190610188565b506100be426103e86401000000006107c16100cc82021704565b600255506000600355610223565b60008215156100dd57506000610182565b8282028284828115156100ec57fe5b041461017f57604080517f08c379a000000000000000000000000000000000000000000000000000000000815260206004820152602160248201527f536166654d6174683a206d756c7469706c69636174696f6e206f766572666c6f60448201527f7700000000000000000000000000000000000000000000000000000000000000606482015290519081900360840190fd5b90505b92915050565b828054600181600116156101000203166002900490600052602060002090601f016020900481019282601f106101c957805160ff19168380011785556101f6565b828001600101855582156101f6579182015b828111156101f65782518255916020019190600101906101db565b50610202929150610206565b5090565b61022091905b80821115610202576000815560010161020c565b90565b61094a806102326000396000f3fe6080604052600436106100825763ffffffff7c01000000000000000000000000000000000000000000000000000000006000350416632ba9fcd581146100875780632c544480146100ae578063498c583e146100c35780638f32d59b14610187578063af640d0f146101b0578063c8691b2a1461023a578063cf09e0d0146102ff575b600080fd5b34801561009357600080fd5b5061009c610314565b60408051918252519081900360200190f35b3480156100ba57600080fd5b5061009c61031a565b3480156100cf57600080fd5b50610185600480360360608110156100e657600080fd5b60ff8235169160208101359181019060608101604082013564010000000081111561011057600080fd5b82018360208201111561012257600080fd5b8035906020019184600183028401116401000000008311171561014457600080fd5b91908080601f016020809104026020016040519081016040528093929190818152602001838380828437600092019190915250929550610321945050505050565b005b34801561019357600080fd5b5061019c6104b1565b604080519115158252519081900360200190f35b3480156101bc57600080fd5b506101c56104cf565b6040805160208082528351818301528351919283929083019185019080838360005b838110156101ff5781810151838201526020016101e7565b50505050905090810190601f16801561022c5780820380516001836020036101000a031916815260200191505b509250505060405180910390f35b34801561024657600080fd5b506102646004803603602081101561025d57600080fd5b503561055c565b6040518085600181111561027457fe5b60ff16815260200184815260200180602001838152602001828103825284818151815260200191508051906020019080838360005b838110156102c15781810151838201526020016102a9565b50505050905090810190601f1680156102ee5780820380516001836020036101000a031916815260200191505b509550505050505060405180910390f35b34801561030b57600080fd5b5061009c6106f5565b60035481565b6004545b90565b6103296104b1565b151561037f576040805160e560020a62461bcd02815260206004820152601760248201527f43616c6c6572206973206e6f7420746865206f776e6572000000000000000000604482015290519081900360640190fd5b600083600181111561038d57fe5b14156103ae576003546103a6908363ffffffff6106fb16565b6003556103d9565b60018360018111156103bc57fe5b14156103d9576003546103d5908363ffffffff61076116565b6003555b6103e161085d565b6080604051908101604052808560018111156103f957fe5b8152602081018590526040810184905260600161041e426103e863ffffffff6107c116565b905260048054600181810180845560008490528451929093027f8a35acfbc15ff81a39ae7d344fd709f28e8600b4aa8c65c6b64bfe7fe36bd19b018054949550929385939291839160ff191690838181111561047657fe5b021790555060208281015160018301556040830151805161049d9260028501920190610886565b506060820151816003015550505050505050565b60005473ffffffffffffffffffffffffffffffffffffffff16331490565b60018054604080516020600284861615610100026000190190941693909304601f810184900484028201840190925281815292918301828280156105545780601f1061052957610100808354040283529160200191610554565b820191906000526020600020905b81548152906001019060200180831161053757829003601f168201915b505050505081565b60008060606000808510158015610574575060045485105b15156105ca576040805160e560020a62461bcd02815260206004820152601360248201527f496e646578206f7574206f6620626f756e647300000000000000000000000000604482015290519081900360640190fd5b6105d261085d565b60048054879081106105e057fe5b6000918252602090912060408051608081019091526004909202018054829060ff16600181111561060d57fe5b600181111561061857fe5b815260200160018201548152602001600282018054600181600116156101000203166002900480601f0160208091040260200160405190810160405280929190818152602001828054600181600116156101000203166002900480156106bf5780601f10610694576101008083540402835291602001916106bf565b820191906000526020600020905b8154815290600101906020018083116106a257829003601f168201915b50505091835250506003919091015460209182015281519082015160408301516060909301519199909850919650945092505050565b60025481565b600082820183811015610758576040805160e560020a62461bcd02815260206004820152601b60248201527f536166654d6174683a206164646974696f6e206f766572666c6f770000000000604482015290519081900360640190fd5b90505b92915050565b6000828211156107bb576040805160e560020a62461bcd02815260206004820152601e60248201527f536166654d6174683a207375627472616374696f6e206f766572666c6f770000604482015290519081900360640190fd5b50900390565b60008215156107d25750600061075b565b8282028284828115156107e157fe5b0414610758576040805160e560020a62461bcd02815260206004820152602160248201527f536166654d6174683a206d756c7469706c69636174696f6e206f766572666c6f60448201527f7700000000000000000000000000000000000000000000000000000000000000606482015290519081900360840190fd5b604080516080810190915280600081526020016000815260200160608152602001600081525090565b828054600181600116156101000203166002900490600052602060002090601f016020900481019282601f106108c757805160ff19168380011785556108f4565b828001600101855582156108f4579182015b828111156108f45782518255916020019190600101906108d9565b50610900929150610904565b5090565b61031e91905b80821115610900576000815560010161090a56fea165627a7a72305820be6958ba63dec1397b001f68b02a41b2da309b925d1a8ce7a2e9730b9e5141d40029",
  "source": "pragma solidity ^0.5.0;\r\n\r\nimport \"./openzeppelin/ownership/Ownable.sol\";\r\nimport \"./openzeppelin/math/SafeMath.sol\";\r\n\r\ncontract UserInfo {\r\n    using SafeMath for uint256;\r\n\r\n    enum UpdatePointType {\r\n        Add,\r\n        Subtract\r\n    }\r\n\r\n    struct History {\r\n        UpdatePointType updatePointType;\r\n        uint amount;\r\n        string description;\r\n        uint updatedAt;\r\n    }\r\n\r\n    address payable owner;\r\n    string public id;\r\n    uint public createdAt;\r\n    uint public point;\r\n\r\n    History[] histories;\r\n\r\n    modifier onlyOwner() {\r\n        require(isOwner(), \"Caller is not the owner\");\r\n        _;\r\n    }\r\n\r\n    function isOwner() public view returns (bool) {\r\n        return msg.sender == owner;\r\n    }\r\n\r\n    constructor (string memory _id) public {\r\n        owner = tx.origin;\r\n        id = _id;\r\n        createdAt = now.mul(1000);\r\n        point = 0;\r\n    }\r\n\r\n    function updatePoint(UpdatePointType updatePointType, uint amount, string memory description) public onlyOwner {\r\n        if (updatePointType == UpdatePointType.Add) {\r\n            point = point.add(amount);\r\n        } else if (updatePointType == UpdatePointType.Subtract) {\r\n            point = point.sub(amount);\r\n        }\r\n\r\n        History memory history = History(updatePointType, amount, description, now.mul(1000));\r\n        histories.push(history);\r\n    }\r\n\r\n    function getHistoriesLength() public view returns (uint) {\r\n        return histories.length;\r\n    }\r\n\r\n    function getHistory(uint index) public view returns (UpdatePointType, uint, string memory, uint) {\r\n        require(index >= 0 && index < histories.length, \"Index out of bounds\");\r\n        History memory history = histories[index];\r\n        return (history.updatePointType, history.amount, history.description, history.updatedAt);\r\n    }\r\n}\r\n",
  "sourcePath": "D:\\Workspace\\GitHub\\THESIS\\BloodChainContracts\\contracts\\UserInfo.sol",
  "compiler": {
    "name": "solc",
    "version": "0.5.0+commit.1d4f565a.Emscripten.clang"
  },
  "schemaVersion": "3.0.11",
  "updatedAt": "2019-08-16T12:38:17.458Z",
  "devdoc": {
    "methods": {}
  },
  "userdoc": {
    "methods": {}
  }
}